{
  "contractName": "AuctionFactory",
  "abi": [
    {
      "inputs": [],
      "payable": false,
      "stateMutability": "nonpayable",
      "type": "constructor"
    },
    {
      "constant": true,
      "inputs": [
        {
          "internalType": "string",
          "name": "",
          "type": "string"
        }
      ],
      "name": "auctionToAddress",
      "outputs": [
        {
          "internalType": "address",
          "name": "",
          "type": "address"
        }
      ],
      "payable": false,
      "stateMutability": "view",
      "type": "function"
    },
    {
      "constant": true,
      "inputs": [
        {
          "internalType": "uint256",
          "name": "",
          "type": "uint256"
        }
      ],
      "name": "auctions",
      "outputs": [
        {
          "internalType": "contract BlindAuction",
          "name": "",
          "type": "address"
        }
      ],
      "payable": false,
      "stateMutability": "view",
      "type": "function"
    },
    {
      "constant": true,
      "inputs": [
        {
          "internalType": "string",
          "name": "",
          "type": "string"
        }
      ],
      "name": "tokenNameToAddress",
      "outputs": [
        {
          "internalType": "address",
          "name": "",
          "type": "address"
        }
      ],
      "payable": false,
      "stateMutability": "view",
      "type": "function"
    },
    {
      "constant": false,
      "inputs": [
        {
          "internalType": "string",
          "name": "_auctionName",
          "type": "string"
        },
        {
          "internalType": "uint256",
          "name": "_startPrice",
          "type": "uint256"
        },
        {
          "internalType": "uint256",
          "name": "_startBlock",
          "type": "uint256"
        },
        {
          "internalType": "uint256",
          "name": "_endBlock",
          "type": "uint256"
        },
        {
          "internalType": "string",
          "name": "_ipfsHash",
          "type": "string"
        }
      ],
      "name": "createAuction",
      "outputs": [],
      "payable": false,
      "stateMutability": "nonpayable",
      "type": "function"
    },
    {
      "constant": true,
      "inputs": [],
      "name": "returnAllAuctions",
      "outputs": [
        {
          "internalType": "contract BlindAuction[]",
          "name": "",
          "type": "address[]"
        }
      ],
      "payable": false,
      "stateMutability": "view",
      "type": "function"
    },
    {
      "constant": true,
      "inputs": [
        {
          "internalType": "string",
          "name": "_auctionName",
          "type": "string"
        }
      ],
      "name": "getAuctionAddress",
      "outputs": [
        {
          "internalType": "address",
          "name": "",
          "type": "address"
        }
      ],
      "payable": false,
      "stateMutability": "view",
      "type": "function"
    },
    {
      "constant": true,
      "inputs": [
        {
          "internalType": "string",
          "name": "_auctionName",
          "type": "string"
        }
      ],
      "name": "gettokenNameToAddress",
      "outputs": [
        {
          "internalType": "address",
          "name": "",
          "type": "address"
        }
      ],
      "payable": false,
      "stateMutability": "view",
      "type": "function"
    }
  ],
  "bytecode": "0x608060405234801561001057600080fd5b5060405161001d906100e2565b604051809103906000f080158015610039573d6000803e3d6000fd5b50600360006101000a81548173ffffffffffffffffffffffffffffffffffffffff021916908373ffffffffffffffffffffffffffffffffffffffff160217905550600360009054906101000a900473ffffffffffffffffffffffffffffffffffffffff16600460006101000a81548173ffffffffffffffffffffffffffffffffffffffff021916908373ffffffffffffffffffffffffffffffffffffffff1602179055506100ef565b612c4e806129f983390190565b6128fb806100fe6000396000f3fe60806040523480156200001157600080fd5b5060043610620000885760003560e01c8063571a26a01162000063578063571a26a01462000408578063c8ba38951462000479578063d1f28df6146200057a578063e91fae3014620005dd5762000088565b806336aba746146200008d57806341e776ac146200018e578063516d949e1462000307575b600080fd5b6200014c60048036036020811015620000a557600080fd5b8101908080359060200190640100000000811115620000c357600080fd5b820183602082011115620000d657600080fd5b80359060200191846001830284011164010000000083111715620000f957600080fd5b91908080601f016020809104026020016040519081016040528093929190818152602001838380828437600081840152601f19601f820116905080830192505050505050509192919290505050620006de565b604051808273ffffffffffffffffffffffffffffffffffffffff1673ffffffffffffffffffffffffffffffffffffffff16815260200191505060405180910390f35b62000305600480360360a0811015620001a657600080fd5b8101908080359060200190640100000000811115620001c457600080fd5b820183602082011115620001d757600080fd5b80359060200191846001830284011164010000000083111715620001fa57600080fd5b91908080601f016020809104026020016040519081016040528093929190818152602001838380828437600081840152601f19601f820116905080830192505050505050509192919290803590602001909291908035906020019092919080359060200190929190803590602001906401000000008111156200027c57600080fd5b8201836020820111156200028f57600080fd5b80359060200191846001830284011164010000000083111715620002b257600080fd5b91908080601f016020809104026020016040519081016040528093929190818152602001838380828437600081840152601f19601f82011690508083019250505050505050919291929050505062000727565b005b620003c6600480360360208110156200031f57600080fd5b81019080803590602001906401000000008111156200033d57600080fd5b8201836020820111156200035057600080fd5b803590602001918460018302840111640100000000831117156200037357600080fd5b91908080601f016020809104026020016040519081016040528093929190818152602001838380828437600081840152601f19601f82011690508083019250505050505050919291929050505062000a4f565b604051808273ffffffffffffffffffffffffffffffffffffffff1673ffffffffffffffffffffffffffffffffffffffff16815260200191505060405180910390f35b62000437600480360360208110156200042057600080fd5b810190808035906020019092919050505062000ae4565b604051808273ffffffffffffffffffffffffffffffffffffffff1673ffffffffffffffffffffffffffffffffffffffff16815260200191505060405180910390f35b62000538600480360360208110156200049157600080fd5b8101908080359060200190640100000000811115620004af57600080fd5b820183602082011115620004c257600080fd5b80359060200191846001830284011164010000000083111715620004e557600080fd5b91908080601f016020809104026020016040519081016040528093929190818152602001838380828437600081840152601f19601f82011690508083019250505050505050919291929050505062000b21565b604051808273ffffffffffffffffffffffffffffffffffffffff1673ffffffffffffffffffffffffffffffffffffffff16815260200191505060405180910390f35b6200058462000b6a565b6040518080602001828103825283818151815260200191508051906020019060200280838360005b83811015620005c9578082015181840152602081019050620005ac565b505050509050019250505060405180910390f35b6200069c60048036036020811015620005f557600080fd5b81019080803590602001906401000000008111156200061357600080fd5b8201836020820111156200062657600080fd5b803590602001918460018302840111640100000000831117156200064957600080fd5b91908080601f016020809104026020016040519081016040528093929190818152602001838380828437600081840152601f19601f82011690508083019250505050505050919291929050505062000bfa565b604051808273ffffffffffffffffffffffffffffffffffffffff1673ffffffffffffffffffffffffffffffffffffffff16815260200191505060405180910390f35b6002818051602081018201805184825260208301602085012081835280955050505050506000915054906101000a900473ffffffffffffffffffffffffffffffffffffffff1681565b6000841162000782576040517f08c379a0000000000000000000000000000000000000000000000000000000008152600401808060200182810382526027815260200180620028a06027913960400191505060405180910390fd5b600033600460009054906101000a900473ffffffffffffffffffffffffffffffffffffffff168787878787604051620007bb9062000c8f565b808873ffffffffffffffffffffffffffffffffffffffff1673ffffffffffffffffffffffffffffffffffffffff1681526020018773ffffffffffffffffffffffffffffffffffffffff1673ffffffffffffffffffffffffffffffffffffffff1681526020018060200186815260200185815260200184815260200180602001838103835288818151815260200191508051906020019080838360005b838110156200087457808201518184015260208101905062000857565b50505050905090810190601f168015620008a25780820380516001836020036101000a031916815260200191505b50838103825284818151815260200191508051906020019080838360005b83811015620008dd578082015181840152602081019050620008c0565b50505050905090810190601f1680156200090b5780820380516001836020036101000a031916815260200191505b509950505050505050505050604051809103906000f08015801562000934573d6000803e3d6000fd5b50905060008190806001815401808255809150509060018203906000526020600020016000909192909190916101000a81548173ffffffffffffffffffffffffffffffffffffffff021916908373ffffffffffffffffffffffffffffffffffffffff16021790555050806001876040518082805190602001908083835b60208310620009d65780518252602082019150602081019050602083039250620009b1565b6001836020036101000a038019825116818451168082178552505050505050905001915050908152602001604051809103902060006101000a81548173ffffffffffffffffffffffffffffffffffffffff021916908373ffffffffffffffffffffffffffffffffffffffff160217905550505050505050565b60006001826040518082805190602001908083835b6020831062000a89578051825260208201915060208101905060208303925062000a64565b6001836020036101000a038019825116818451168082178552505050505050905001915050908152602001604051809103902060009054906101000a900473ffffffffffffffffffffffffffffffffffffffff169050919050565b6000818154811062000af257fe5b906000526020600020016000915054906101000a900473ffffffffffffffffffffffffffffffffffffffff1681565b6001818051602081018201805184825260208301602085012081835280955050505050506000915054906101000a900473ffffffffffffffffffffffffffffffffffffffff1681565b6060600080548060200260200160405190810160405280929190818152602001828054801562000bf057602002820191906000526020600020905b8160009054906101000a900473ffffffffffffffffffffffffffffffffffffffff1673ffffffffffffffffffffffffffffffffffffffff168152602001906001019080831162000ba5575b5050505050905090565b60006002826040518082805190602001908083835b6020831062000c34578051825260208201915060208101905060208303925062000c0f565b6001836020036101000a038019825116818451168082178552505050505050905001915050908152602001604051809103902060009054906101000a900473ffffffffffffffffffffffffffffffffffffffff169050919050565b611c028062000c9e8339019056fe60806040523480156200001157600080fd5b5060405162001c0238038062001c02833981810160405260e08110156200003757600080fd5b810190808051906020019092919080519060200190929190805160405193929190846401000000008211156200006c57600080fd5b838201915060208201858111156200008357600080fd5b8251866001820283011164010000000082111715620000a157600080fd5b8083526020830192505050908051906020019080838360005b83811015620000d7578082015181840152602081019050620000ba565b50505050905090810190601f168015620001055780820380516001836020036101000a031916815260200191505b50604052602001805190602001909291908051906020019092919080519060200190929190805160405193929190846401000000008211156200014757600080fd5b838201915060208201858111156200015e57600080fd5b82518660018202830111640100000000821117156200017c57600080fd5b8083526020830192505050908051906020019080838360005b83811015620001b257808201518184015260208101905062000195565b50505050905090810190601f168015620001e05780820380516001836020036101000a031916815260200191505b5060405250505081831062000241576040517f08c379a000000000000000000000000000000000000000000000000000000000815260040180806020018281038252603681526020018062001bcc6036913960400191505060405180910390fd5b4383116200029b576040517f08c379a000000000000000000000000000000000000000000000000000000000815260040180806020018281038252604281526020018062001b8a6042913960600191505060405180910390fd5b600073ffffffffffffffffffffffffffffffffffffffff168773ffffffffffffffffffffffffffffffffffffffff1614156200033f576040517f08c379a000000000000000000000000000000000000000000000000000000000815260040180806020018281038252601d8152602001807f6f776e657220616464726573732073686f756c642062652076616c696400000081525060200191505060405180910390fd5b866000806101000a81548173ffffffffffffffffffffffffffffffffffffffff021916908373ffffffffffffffffffffffffffffffffffffffff16021790555084600590805190602001906200039792919062000535565b508360018190555082600281905550816003819055508060049080519060200190620003c592919062000535565b5085600660006101000a81548173ffffffffffffffffffffffffffffffffffffffff021916908373ffffffffffffffffffffffffffffffffffffffff160217905550600660009054906101000a900473ffffffffffffffffffffffffffffffffffffffff1673ffffffffffffffffffffffffffffffffffffffff1663d85d3d27866040518263ffffffff1660e01b81526004018080602001828103825283818151815260200191508051906020019080838360005b83811015620004975780820151818401526020810190506200047a565b50505050905090810190601f168015620004c55780820380516001836020036101000a031916815260200191505b5092505050602060405180830381600087803b158015620004e557600080fd5b505af1158015620004fa573d6000803e3d6000fd5b505050506040513d60208110156200051157600080fd5b810190808051906020019092919050505060098190555050505050505050620005e4565b828054600181600116156101000203166002900490600052602060002090601f016020900481019282601f106200057857805160ff1916838001178555620005a9565b82800160010185558215620005a9579182015b82811115620005a85782518255916020019190600101906200058b565b5b509050620005b89190620005bc565b5090565b620005e191905b80821115620005dd576000816000905550600101620005c3565b5090565b90565b61159680620005f46000396000f3fe6080604052600436106100e85760003560e01c806391f901571161008a578063c63d99db11610059578063c63d99db1461038f578063ce10cf801461041f578063ecfc7ecc14610484578063f5b56c56146104a6576100e8565b806391f9015714610252578063a5c42ef1146102a9578063b3cc167a146102d4578063c623674f146102ff576100e8565b806348cd4cb1116100c657806348cd4cb1146101765780634979440a146101a15780638da5cb5b146101cc5780638fa8b79014610223576100e8565b8063083c6323146100ed5780633ccfd60b146101185780633f9942ff14610147575b600080fd5b3480156100f957600080fd5b506101026104d1565b6040518082815260200191505060405180910390f35b34801561012457600080fd5b5061012d6104d7565b604051808215151515815260200191505060405180910390f35b34801561015357600080fd5b5061015c610aa7565b604051808215151515815260200191505060405180910390f35b34801561018257600080fd5b5061018b610aba565b6040518082815260200191505060405180910390f35b3480156101ad57600080fd5b506101b6610ac0565b6040518082815260200191505060405180910390f35b3480156101d857600080fd5b506101e1610b29565b604051808273ffffffffffffffffffffffffffffffffffffffff1673ffffffffffffffffffffffffffffffffffffffff16815260200191505060405180910390f35b34801561022f57600080fd5b50610238610b4e565b604051808215151515815260200191505060405180910390f35b34801561025e57600080fd5b50610267610d20565b604051808273ffffffffffffffffffffffffffffffffffffffff1673ffffffffffffffffffffffffffffffffffffffff16815260200191505060405180910390f35b3480156102b557600080fd5b506102be610d46565b6040518082815260200191505060405180910390f35b3480156102e057600080fd5b506102e9610d4c565b6040518082815260200191505060405180910390f35b34801561030b57600080fd5b50610314610d52565b6040518080602001828103825283818151815260200191508051906020019080838360005b83811015610354578082015181840152602081019050610339565b50505050905090810190601f1680156103815780820380516001836020036101000a031916815260200191505b509250505060405180910390f35b34801561039b57600080fd5b506103a4610df0565b6040518080602001828103825283818151815260200191508051906020019080838360005b838110156103e45780820151818401526020810190506103c9565b50505050905090810190601f1680156104115780820380516001836020036101000a031916815260200191505b509250505060405180910390f35b34801561042b57600080fd5b5061046e6004803603602081101561044257600080fd5b81019080803573ffffffffffffffffffffffffffffffffffffffff169060200190929190505050610e8e565b6040518082815260200191505060405180910390f35b61048c610ea6565b604051808215151515815260200191505060405180910390f35b3480156104b257600080fd5b506104bb6113f0565b6040518082815260200191505060405180910390f35b60035481565b60006003544311806104f55750600660149054906101000a900460ff165b61054a576040517f08c379a000000000000000000000000000000000000000000000000000000000815260040180806020018281038252602681526020018061148a6026913960400191505060405180910390fd5b600080600660149054906101000a900460ff16156105ac57339150600a60008373ffffffffffffffffffffffffffffffffffffffff1673ffffffffffffffffffffffffffffffffffffffff168152602001908152602001600020549050610912565b6000809054906101000a900473ffffffffffffffffffffffffffffffffffffffff1673ffffffffffffffffffffffffffffffffffffffff163373ffffffffffffffffffffffffffffffffffffffff16141561076357600860009054906101000a900473ffffffffffffffffffffffffffffffffffffffff16915060075490506001600b60006101000a81548160ff021916908315150217905550600660009054906101000a900473ffffffffffffffffffffffffffffffffffffffff1673ffffffffffffffffffffffffffffffffffffffff1663f5537ede6000809054906101000a900473ffffffffffffffffffffffffffffffffffffffff16846009546040518463ffffffff1660e01b8152600401808473ffffffffffffffffffffffffffffffffffffffff1673ffffffffffffffffffffffffffffffffffffffff1681526020018373ffffffffffffffffffffffffffffffffffffffff1673ffffffffffffffffffffffffffffffffffffffff1681526020018281526020019350505050600060405180830381600087803b15801561074657600080fd5b505af115801561075a573d6000803e3d6000fd5b50505050610911565b600860009054906101000a900473ffffffffffffffffffffffffffffffffffffffff1673ffffffffffffffffffffffffffffffffffffffff163373ffffffffffffffffffffffffffffffffffffffff1614156108ca57600860009054906101000a900473ffffffffffffffffffffffffffffffffffffffff169150600b60009054906101000a900460ff161561085c57600a6000600860009054906101000a900473ffffffffffffffffffffffffffffffffffffffff1673ffffffffffffffffffffffffffffffffffffffff1673ffffffffffffffffffffffffffffffffffffffff1681526020019081526020016000205490506108c5565b600754600a6000600860009054906101000a900473ffffffffffffffffffffffffffffffffffffffff1673ffffffffffffffffffffffffffffffffffffffff1673ffffffffffffffffffffffffffffffffffffffff168152602001908152602001600020540390505b610910565b339150600a60008373ffffffffffffffffffffffffffffffffffffffff1673ffffffffffffffffffffffffffffffffffffffff1681526020019081526020016000205490505b5b5b6000811161096b576040517f08c379a000000000000000000000000000000000000000000000000000000000815260040180806020018281038252602d815260200180611506602d913960400191505060405180910390fd5b80600a60008473ffffffffffffffffffffffffffffffffffffffff1673ffffffffffffffffffffffffffffffffffffffff168152602001908152602001600020600082825403925050819055503373ffffffffffffffffffffffffffffffffffffffff166108fc829081150290604051600060405180830381858888f193505050501580156109fe573d6000803e3d6000fd5b507f9b1bfa7fa9ee420a16e124f794c35ac9f90472acc99140eb2f6447c714cad8eb338383604051808473ffffffffffffffffffffffffffffffffffffffff1673ffffffffffffffffffffffffffffffffffffffff1681526020018373ffffffffffffffffffffffffffffffffffffffff1673ffffffffffffffffffffffffffffffffffffffff168152602001828152602001935050505060405180910390a160019250505090565b600660149054906101000a900460ff1681565b60025481565b6000600a6000600860009054906101000a900473ffffffffffffffffffffffffffffffffffffffff1673ffffffffffffffffffffffffffffffffffffffff1673ffffffffffffffffffffffffffffffffffffffff16815260200190815260200160002054905090565b6000809054906101000a900473ffffffffffffffffffffffffffffffffffffffff1681565b60008060009054906101000a900473ffffffffffffffffffffffffffffffffffffffff1673ffffffffffffffffffffffffffffffffffffffff163373ffffffffffffffffffffffffffffffffffffffff1614610bf5576040517f08c379a000000000000000000000000000000000000000000000000000000000815260040180806020018281038252602f815260200180611533602f913960400191505060405180910390fd5b6003544310610c4f576040517f08c379a00000000000000000000000000000000000000000000000000000000081526004018080602001828103825260398152602001806114516039913960400191505060405180910390fd5b600660149054906101000a900460ff1615610cd2576040517f08c379a00000000000000000000000000000000000000000000000000000000081526004018080602001828103825260138152602001807f61756374696f6e2069732063616e63656c65640000000000000000000000000081525060200191505060405180910390fd5b6001600660146101000a81548160ff0219169083151502179055507f437c69c84dab0c17ae0132a40f5406a040298bb09313766e500b4030d61feba760405160405180910390a16001905090565b600860009054906101000a900473ffffffffffffffffffffffffffffffffffffffff1681565b60095481565b60015481565b60048054600181600116156101000203166002900480601f016020809104026020016040519081016040528092919081815260200182805460018160011615610100020316600290048015610de85780601f10610dbd57610100808354040283529160200191610de8565b820191906000526020600020905b815481529060010190602001808311610dcb57829003601f168201915b505050505081565b60058054600181600116156101000203166002900480601f016020809104026020016040519081016040528092919081815260200182805460018160011615610100020316600290048015610e865780601f10610e5b57610100808354040283529160200191610e86565b820191906000526020600020905b815481529060010190602001808311610e6957829003601f168201915b505050505081565b600a6020528060005260406000206000915090505481565b60006002544311610f02576040517f08c379a000000000000000000000000000000000000000000000000000000000815260040180806020018281038252603e815260200180611413603e913960400191505060405180910390fd5b6003544310610f5c576040517f08c379a00000000000000000000000000000000000000000000000000000000081526004018080602001828103825260398152602001806114516039913960400191505060405180910390fd5b600660149054906101000a900460ff1615610fdf576040517f08c379a00000000000000000000000000000000000000000000000000000000081526004018080602001828103825260138152602001807f61756374696f6e2069732063616e63656c65640000000000000000000000000081525060200191505060405180910390fd5b6000809054906101000a900473ffffffffffffffffffffffffffffffffffffffff1673ffffffffffffffffffffffffffffffffffffffff163373ffffffffffffffffffffffffffffffffffffffff161415611085576040517f08c379a00000000000000000000000000000000000000000000000000000000081526004018080602001828103825260308152602001806114d66030913960400191505060405180910390fd5b600034116110fb576040517f08c379a00000000000000000000000000000000000000000000000000000000081526004018080602001828103825260188152602001807f76616c75652073686f756c6420626520706f736974697665000000000000000081525060200191505060405180910390fd5b600034600a60003373ffffffffffffffffffffffffffffffffffffffff1673ffffffffffffffffffffffffffffffffffffffff16815260200190815260200160002054019050600754811161119b576040517f08c379a00000000000000000000000000000000000000000000000000000000081526004018080602001828103825260268152602001806114b06026913960400191505060405180910390fd5b6000600a6000600860009054906101000a900473ffffffffffffffffffffffffffffffffffffffff1673ffffffffffffffffffffffffffffffffffffffff1673ffffffffffffffffffffffffffffffffffffffff16815260200190815260200160002054905081600a60003373ffffffffffffffffffffffffffffffffffffffff1673ffffffffffffffffffffffffffffffffffffffff168152602001908152602001600020819055508082116112655761125a6001548301826113f6565b600781905550611314565b600860009054906101000a900473ffffffffffffffffffffffffffffffffffffffff1673ffffffffffffffffffffffffffffffffffffffff163373ffffffffffffffffffffffffffffffffffffffff16146113105733600860006101000a81548173ffffffffffffffffffffffffffffffffffffffff021916908373ffffffffffffffffffffffffffffffffffffffff1602179055506113098260015483016113f6565b6007819055505b8190505b7fd9c002a96bcc0e55dd94d4add60b8695b6edda5ff90ed03fb9ce43ee632da1ec3383600860009054906101000a900473ffffffffffffffffffffffffffffffffffffffff1684600754604051808673ffffffffffffffffffffffffffffffffffffffff1673ffffffffffffffffffffffffffffffffffffffff1681526020018581526020018473ffffffffffffffffffffffffffffffffffffffff1673ffffffffffffffffffffffffffffffffffffffff1681526020018381526020018281526020019550505050505060405180910390a160019250505090565b60075481565b6000818310156114085782905061140c565b8190505b9291505056fe63757272656e7420626c6f636b206e756d6265722073686f756c642062652067726561746572207468616e20737461727420626c6f636b206e756d62657263757272656e7420626c6f636b206e756d6265722073686f756c64206265206c657373207468616e20656e6420626c6f636b206e756d62657261756374696f6e2068617320656e646564206f7220686173206265656e2063616e63656c65644269642073686f756c642062652067726561746572207468616e2068696768657374206269646f6e6c79206f776e6572206973206e6f7420616c6c6f77656420746f20706572666f726d207468697320616374696f6e7769746864726177616c20616d6f756e742073686f756c642062652067726561746572207468616e207a65726f6f6e6c79206f776e657220697320617574686f72697a656420746f20706572666f726d207468697320616374696f6ea265627a7a723158207060fb770346b72028302415781490205e91947411fe5e413b105f5431102a9a64736f6c634300050c0032737461727420626c6f636b206e756d6265722073686f756c642062652067726561746572207468616e207468652063757272656e7420626c6f636b206e756d6265727374617274696e6720626c6f636b2073686f756c642062652067726561746572207468616e2074686520656e64696e6720626c6f636b53746172742050726963652073686f756c642062652067726561746572207468616e207a65726fa265627a7a723158200fe39f706fba8af25a1954a9e3089d2311b24b14882a33b5a9649c9136a204bc64736f6c634300050c003260806040523480156200001157600080fd5b506040518060400160405280600b81526020017f41756374696f6e4974656d0000000000000000000000000000000000000000008152506040518060400160405280600381526020017f41554300000000000000000000000000000000000000000000000000000000008152508181620000986301ffc9a760e01b6200011c60201b60201c565b620000b06380ac58cd60e01b6200011c60201b60201c565b620000c863780e9d6360e01b6200011c60201b60201c565b8160099080519060200190620000e092919062000225565b5080600a9080519060200190620000f992919062000225565b5062000112635b5e139f60e01b6200011c60201b60201c565b50505050620002d4565b63ffffffff60e01b817bffffffffffffffffffffffffffffffffffffffffffffffffffffffff19161415620001b9576040517f08c379a000000000000000000000000000000000000000000000000000000000815260040180806020018281038252601c8152602001807f4552433136353a20696e76616c696420696e746572666163652069640000000081525060200191505060405180910390fd5b6001600080837bffffffffffffffffffffffffffffffffffffffffffffffffffffffff19167bffffffffffffffffffffffffffffffffffffffffffffffffffffffff1916815260200190815260200160002060006101000a81548160ff02191690831515021790555050565b828054600181600116156101000203166002900490600052602060002090601f016020900481019282601f106200026857805160ff191683800117855562000299565b8280016001018555821562000299579182015b82811115620002985782518255916020019190600101906200027b565b5b509050620002a89190620002ac565b5090565b620002d191905b80821115620002cd576000816000905550600101620002b3565b5090565b90565b61296a80620002e46000396000f3fe608060405234801561001057600080fd5b50600436106101215760003560e01c80636352211e116100ad578063c87b56dd11610071578063c87b56dd14610706578063d2c069f0146107ad578063d85d3d2714610854578063e985e9c514610923578063f5537ede1461099f57610121565b80636352211e1461046857806370a08231146104d657806395d89b411461052e578063a22cb465146105b1578063b88d4fde1461060157610121565b806318160ddd116100f457806318160ddd146102ca57806323b872dd146102e85780632f745c591461035657806342842e0e146103b85780634f6ccce71461042657610121565b806301ffc9a71461012657806306fdde031461018b578063081812fc1461020e578063095ea7b31461027c575b600080fd5b6101716004803603602081101561013c57600080fd5b8101908080357bffffffffffffffffffffffffffffffffffffffffffffffffffffffff19169060200190929190505050610a0d565b604051808215151515815260200191505060405180910390f35b610193610a74565b6040518080602001828103825283818151815260200191508051906020019080838360005b838110156101d35780820151818401526020810190506101b8565b50505050905090810190601f1680156102005780820380516001836020036101000a031916815260200191505b509250505060405180910390f35b61023a6004803603602081101561022457600080fd5b8101908080359060200190929190505050610b16565b604051808273ffffffffffffffffffffffffffffffffffffffff1673ffffffffffffffffffffffffffffffffffffffff16815260200191505060405180910390f35b6102c86004803603604081101561029257600080fd5b81019080803573ffffffffffffffffffffffffffffffffffffffff16906020019092919080359060200190929190505050610bb1565b005b6102d2610d98565b6040518082815260200191505060405180910390f35b610354600480360360608110156102fe57600080fd5b81019080803573ffffffffffffffffffffffffffffffffffffffff169060200190929190803573ffffffffffffffffffffffffffffffffffffffff16906020019092919080359060200190929190505050610da5565b005b6103a26004803603604081101561036c57600080fd5b81019080803573ffffffffffffffffffffffffffffffffffffffff16906020019092919080359060200190929190505050610e1b565b6040518082815260200191505060405180910390f35b610424600480360360608110156103ce57600080fd5b81019080803573ffffffffffffffffffffffffffffffffffffffff169060200190929190803573ffffffffffffffffffffffffffffffffffffffff16906020019092919080359060200190929190505050610eda565b005b6104526004803603602081101561043c57600080fd5b8101908080359060200190929190505050610efa565b6040518082815260200191505060405180910390f35b6104946004803603602081101561047e57600080fd5b8101908080359060200190929190505050610f7a565b604051808273ffffffffffffffffffffffffffffffffffffffff1673ffffffffffffffffffffffffffffffffffffffff16815260200191505060405180910390f35b610518600480360360208110156104ec57600080fd5b81019080803573ffffffffffffffffffffffffffffffffffffffff169060200190929190505050611042565b6040518082815260200191505060405180910390f35b610536611117565b6040518080602001828103825283818151815260200191508051906020019080838360005b8381101561057657808201518184015260208101905061055b565b50505050905090810190601f1680156105a35780820380516001836020036101000a031916815260200191505b509250505060405180910390f35b6105ff600480360360408110156105c757600080fd5b81019080803573ffffffffffffffffffffffffffffffffffffffff1690602001909291908035151590602001909291905050506111b9565b005b6107046004803603608081101561061757600080fd5b81019080803573ffffffffffffffffffffffffffffffffffffffff169060200190929190803573ffffffffffffffffffffffffffffffffffffffff169060200190929190803590602001909291908035906020019064010000000081111561067e57600080fd5b82018360208201111561069057600080fd5b803590602001918460018302840111640100000000831117156106b257600080fd5b91908080601f016020809104026020016040519081016040528093929190818152602001838380828437600081840152601f19601f820116905080830192505050505050509192919290505050611371565b005b6107326004803603602081101561071c57600080fd5b81019080803590602001909291905050506113e9565b6040518080602001828103825283818151815260200191508051906020019080838360005b83811015610772578082015181840152602081019050610757565b50505050905090810190601f16801561079f5780820380516001836020036101000a031916815260200191505b509250505060405180910390f35b6107d9600480360360208110156107c357600080fd5b81019080803590602001909291905050506114fc565b6040518080602001828103825283818151815260200191508051906020019080838360005b838110156108195780820151818401526020810190506107fe565b50505050905090810190601f1680156108465780820380516001836020036101000a031916815260200191505b509250505060405180910390f35b61090d6004803603602081101561086a57600080fd5b810190808035906020019064010000000081111561088757600080fd5b82018360208201111561089957600080fd5b803590602001918460018302840111640100000000831117156108bb57600080fd5b91908080601f016020809104026020016040519081016040528093929190818152602001838380828437600081840152601f19601f8201169050808301925050505050505091929192905050506115b5565b6040518082815260200191505060405180910390f35b6109856004803603604081101561093957600080fd5b81019080803573ffffffffffffffffffffffffffffffffffffffff169060200190929190803573ffffffffffffffffffffffffffffffffffffffff169060200190929190505050611778565b604051808215151515815260200191505060405180910390f35b610a0b600480360360608110156109b557600080fd5b81019080803573ffffffffffffffffffffffffffffffffffffffff169060200190929190803573ffffffffffffffffffffffffffffffffffffffff1690602001909291908035906020019092919050505061180c565b005b6000806000837bffffffffffffffffffffffffffffffffffffffffffffffffffffffff19167bffffffffffffffffffffffffffffffffffffffffffffffffffffffff1916815260200190815260200160002060009054906101000a900460ff169050919050565b606060098054600181600116156101000203166002900480601f016020809104026020016040519081016040528092919081815260200182805460018160011615610100020316600290048015610b0c5780601f10610ae157610100808354040283529160200191610b0c565b820191906000526020600020905b815481529060010190602001808311610aef57829003601f168201915b5050505050905090565b6000610b2182611897565b610b76576040517f08c379a000000000000000000000000000000000000000000000000000000000815260040180806020018281038252602c815260200180612834602c913960400191505060405180910390fd5b6002600083815260200190815260200160002060009054906101000a900473ffffffffffffffffffffffffffffffffffffffff169050919050565b6000610bbc82610f7a565b90508073ffffffffffffffffffffffffffffffffffffffff168373ffffffffffffffffffffffffffffffffffffffff161415610c43576040517f08c379a00000000000000000000000000000000000000000000000000000000081526004018080602001828103825260218152602001806128b86021913960400191505060405180910390fd5b8073ffffffffffffffffffffffffffffffffffffffff16610c62611909565b73ffffffffffffffffffffffffffffffffffffffff161480610c915750610c9081610c8b611909565b611778565b5b610ce6576040517f08c379a00000000000000000000000000000000000000000000000000000000081526004018080602001828103825260388152602001806127a96038913960400191505060405180910390fd5b826002600084815260200190815260200160002060006101000a81548173ffffffffffffffffffffffffffffffffffffffff021916908373ffffffffffffffffffffffffffffffffffffffff160217905550818373ffffffffffffffffffffffffffffffffffffffff168273ffffffffffffffffffffffffffffffffffffffff167f8c5be1e5ebec7d5bd14f71427d1e84f3dd0314c0f7b2291e5b200ac8c7c3b92560405160405180910390a4505050565b6000600780549050905090565b610db6610db0611909565b82611911565b610e0b576040517f08c379a00000000000000000000000000000000000000000000000000000000081526004018080602001828103825260318152602001806128d96031913960400191505060405180910390fd5b610e16838383611a05565b505050565b6000610e2683611042565b8210610e7d576040517f08c379a000000000000000000000000000000000000000000000000000000000815260040180806020018281038252602b8152602001806126fc602b913960400191505060405180910390fd5b600560008473ffffffffffffffffffffffffffffffffffffffff1673ffffffffffffffffffffffffffffffffffffffff1681526020019081526020016000208281548110610ec757fe5b9060005260206000200154905092915050565b610ef583838360405180602001604052806000815250611371565b505050565b6000610f04610d98565b8210610f5b576040517f08c379a000000000000000000000000000000000000000000000000000000000815260040180806020018281038252602c81526020018061290a602c913960400191505060405180910390fd5b60078281548110610f6857fe5b90600052602060002001549050919050565b6000806001600084815260200190815260200160002060009054906101000a900473ffffffffffffffffffffffffffffffffffffffff169050600073ffffffffffffffffffffffffffffffffffffffff168173ffffffffffffffffffffffffffffffffffffffff161415611039576040517f08c379a000000000000000000000000000000000000000000000000000000000815260040180806020018281038252602981526020018061280b6029913960400191505060405180910390fd5b80915050919050565b60008073ffffffffffffffffffffffffffffffffffffffff168273ffffffffffffffffffffffffffffffffffffffff1614156110c9576040517f08c379a000000000000000000000000000000000000000000000000000000000815260040180806020018281038252602a8152602001806127e1602a913960400191505060405180910390fd5b611110600360008473ffffffffffffffffffffffffffffffffffffffff1673ffffffffffffffffffffffffffffffffffffffff168152602001908152602001600020611a29565b9050919050565b6060600a8054600181600116156101000203166002900480601f0160208091040260200160405190810160405280929190818152602001828054600181600116156101000203166002900480156111af5780601f10611184576101008083540402835291602001916111af565b820191906000526020600020905b81548152906001019060200180831161119257829003601f168201915b5050505050905090565b6111c1611909565b73ffffffffffffffffffffffffffffffffffffffff168273ffffffffffffffffffffffffffffffffffffffff161415611262576040517f08c379a00000000000000000000000000000000000000000000000000000000081526004018080602001828103825260198152602001807f4552433732313a20617070726f766520746f2063616c6c65720000000000000081525060200191505060405180910390fd5b806004600061126f611909565b73ffffffffffffffffffffffffffffffffffffffff1673ffffffffffffffffffffffffffffffffffffffff16815260200190815260200160002060008473ffffffffffffffffffffffffffffffffffffffff1673ffffffffffffffffffffffffffffffffffffffff16815260200190815260200160002060006101000a81548160ff0219169083151502179055508173ffffffffffffffffffffffffffffffffffffffff1661131c611909565b73ffffffffffffffffffffffffffffffffffffffff167f17307eab39ab6107e8899845ad3d59bd9653f200f220920489ca2b5937696c3183604051808215151515815260200191505060405180910390a35050565b61138261137c611909565b83611911565b6113d7576040517f08c379a00000000000000000000000000000000000000000000000000000000081526004018080602001828103825260318152602001806128d96031913960400191505060405180910390fd5b6113e384848484611a37565b50505050565b60606113f482611897565b611449576040517f08c379a000000000000000000000000000000000000000000000000000000000815260040180806020018281038252602f815260200180612889602f913960400191505060405180910390fd5b600b60008381526020019081526020016000208054600181600116156101000203166002900480601f0160208091040260200160405190810160405280929190818152602001828054600181600116156101000203166002900480156114f05780601f106114c5576101008083540402835291602001916114f0565b820191906000526020600020905b8154815290600101906020018083116114d357829003601f168201915b50505050509050919050565b600c818154811061150957fe5b906000526020600020016000915090508054600181600116156101000203166002900480601f0160208091040260200160405190810160405280929190818152602001828054600181600116156101000203166002900480156115ad5780601f10611582576101008083540402835291602001916115ad565b820191906000526020600020905b81548152906001019060200180831161159057829003601f168201915b505050505081565b6000600d826040518082805190602001908083835b602083106115ed57805182526020820191506020810190506020830392506115ca565b6001836020036101000a038019825116818451168082178552505050505050905001915050908152602001604051809103902060009054906101000a900460ff16156116a1576040517f08c379a00000000000000000000000000000000000000000000000000000000081526004018080602001828103825260168152602001807f61756374696f6e2065786973747320616c72656164790000000000000000000081525060200191505060405180910390fd5b6000600c8390806001815401808255809150509060018203906000526020600020016000909192909190915090805190602001906116e092919061262a565b5090506116ed3382611aa9565b6001600d846040518082805190602001908083835b602083106117255780518252602082019150602081019050602083039250611702565b6001836020036101000a038019825116818451168082178552505050505050905001915050908152602001604051809103902060006101000a81548160ff02191690831515021790555080915050919050565b6000600460008473ffffffffffffffffffffffffffffffffffffffff1673ffffffffffffffffffffffffffffffffffffffff16815260200190815260200160002060008373ffffffffffffffffffffffffffffffffffffffff1673ffffffffffffffffffffffffffffffffffffffff16815260200190815260200160002060009054906101000a900460ff16905092915050565b600c80549050811115611887576040517f08c379a00000000000000000000000000000000000000000000000000000000081526004018080602001828103825260188152602001807f73686f756c642062652061206d696e74656420746f6b656e000000000000000081525060200191505060405180910390fd5b611892838383611a05565b505050565b6000806001600084815260200190815260200160002060009054906101000a900473ffffffffffffffffffffffffffffffffffffffff169050600073ffffffffffffffffffffffffffffffffffffffff168173ffffffffffffffffffffffffffffffffffffffff161415915050919050565b600033905090565b600061191c82611897565b611971576040517f08c379a000000000000000000000000000000000000000000000000000000000815260040180806020018281038252602c81526020018061277d602c913960400191505060405180910390fd5b600061197c83610f7a565b90508073ffffffffffffffffffffffffffffffffffffffff168473ffffffffffffffffffffffffffffffffffffffff1614806119eb57508373ffffffffffffffffffffffffffffffffffffffff166119d384610b16565b73ffffffffffffffffffffffffffffffffffffffff16145b806119fc57506119fb8185611778565b5b91505092915050565b611a10838383611aca565b611a1a8382611d25565b611a248282611ec3565b505050565b600081600001549050919050565b611a42848484611a05565b611a4e84848484611f8a565b611aa3576040517f08c379a00000000000000000000000000000000000000000000000000000000081526004018080602001828103825260328152602001806127276032913960400191505060405180910390fd5b50505050565b611ab3828261217a565b611abd8282611ec3565b611ac681612392565b5050565b8273ffffffffffffffffffffffffffffffffffffffff16611aea82610f7a565b73ffffffffffffffffffffffffffffffffffffffff1614611b56576040517f08c379a00000000000000000000000000000000000000000000000000000000081526004018080602001828103825260298152602001806128606029913960400191505060405180910390fd5b600073ffffffffffffffffffffffffffffffffffffffff168273ffffffffffffffffffffffffffffffffffffffff161415611bdc576040517f08c379a00000000000000000000000000000000000000000000000000000000081526004018080602001828103825260248152602001806127596024913960400191505060405180910390fd5b611be5816123de565b611c2c600360008573ffffffffffffffffffffffffffffffffffffffff1673ffffffffffffffffffffffffffffffffffffffff16815260200190815260200160002061249c565b611c73600360008473ffffffffffffffffffffffffffffffffffffffff1673ffffffffffffffffffffffffffffffffffffffff1681526020019081526020016000206124bf565b816001600083815260200190815260200160002060006101000a81548173ffffffffffffffffffffffffffffffffffffffff021916908373ffffffffffffffffffffffffffffffffffffffff160217905550808273ffffffffffffffffffffffffffffffffffffffff168473ffffffffffffffffffffffffffffffffffffffff167fddf252ad1be2c89b69c2b068fc378daa952ba7f163c4a11628f55a4df523b3ef60405160405180910390a4505050565b6000611d7d6001600560008673ffffffffffffffffffffffffffffffffffffffff1673ffffffffffffffffffffffffffffffffffffffff168152602001908152602001600020805490506124d590919063ffffffff16565b9050600060066000848152602001908152602001600020549050818114611e6a576000600560008673ffffffffffffffffffffffffffffffffffffffff1673ffffffffffffffffffffffffffffffffffffffff1681526020019081526020016000208381548110611dea57fe5b9060005260206000200154905080600560008773ffffffffffffffffffffffffffffffffffffffff1673ffffffffffffffffffffffffffffffffffffffff1681526020019081526020016000208381548110611e4257fe5b9060005260206000200181905550816006600083815260200190815260200160002081905550505b600560008573ffffffffffffffffffffffffffffffffffffffff1673ffffffffffffffffffffffffffffffffffffffff168152602001908152602001600020805480919060019003611ebc91906126aa565b5050505050565b600560008373ffffffffffffffffffffffffffffffffffffffff1673ffffffffffffffffffffffffffffffffffffffff168152602001908152602001600020805490506006600083815260200190815260200160002081905550600560008373ffffffffffffffffffffffffffffffffffffffff1673ffffffffffffffffffffffffffffffffffffffff1681526020019081526020016000208190806001815401808255809150509060018203906000526020600020016000909192909190915055505050565b6000611fab8473ffffffffffffffffffffffffffffffffffffffff1661251f565b611fb85760019050612172565b60008473ffffffffffffffffffffffffffffffffffffffff1663150b7a02611fde611909565b8887876040518563ffffffff1660e01b8152600401808573ffffffffffffffffffffffffffffffffffffffff1673ffffffffffffffffffffffffffffffffffffffff1681526020018473ffffffffffffffffffffffffffffffffffffffff1673ffffffffffffffffffffffffffffffffffffffff16815260200183815260200180602001828103825283818151815260200191508051906020019080838360005b8381101561209a57808201518184015260208101905061207f565b50505050905090810190601f1680156120c75780820380516001836020036101000a031916815260200191505b5095505050505050602060405180830381600087803b1580156120e957600080fd5b505af11580156120fd573d6000803e3d6000fd5b505050506040513d602081101561211357600080fd5b8101908080519060200190929190505050905063150b7a0260e01b7bffffffffffffffffffffffffffffffffffffffffffffffffffffffff1916817bffffffffffffffffffffffffffffffffffffffffffffffffffffffff1916149150505b949350505050565b600073ffffffffffffffffffffffffffffffffffffffff168273ffffffffffffffffffffffffffffffffffffffff16141561221d576040517f08c379a00000000000000000000000000000000000000000000000000000000081526004018080602001828103825260208152602001807f4552433732313a206d696e7420746f20746865207a65726f206164647265737381525060200191505060405180910390fd5b61222681611897565b15612299576040517f08c379a000000000000000000000000000000000000000000000000000000000815260040180806020018281038252601c8152602001807f4552433732313a20746f6b656e20616c7265616479206d696e7465640000000081525060200191505060405180910390fd5b816001600083815260200190815260200160002060006101000a81548173ffffffffffffffffffffffffffffffffffffffff021916908373ffffffffffffffffffffffffffffffffffffffff160217905550612332600360008473ffffffffffffffffffffffffffffffffffffffff1673ffffffffffffffffffffffffffffffffffffffff1681526020019081526020016000206124bf565b808273ffffffffffffffffffffffffffffffffffffffff16600073ffffffffffffffffffffffffffffffffffffffff167fddf252ad1be2c89b69c2b068fc378daa952ba7f163c4a11628f55a4df523b3ef60405160405180910390a45050565b6007805490506008600083815260200190815260200160002081905550600781908060018154018082558091505090600182039060005260206000200160009091929091909150555050565b600073ffffffffffffffffffffffffffffffffffffffff166002600083815260200190815260200160002060009054906101000a900473ffffffffffffffffffffffffffffffffffffffff1673ffffffffffffffffffffffffffffffffffffffff16146124995760006002600083815260200190815260200160002060006101000a81548173ffffffffffffffffffffffffffffffffffffffff021916908373ffffffffffffffffffffffffffffffffffffffff1602179055505b50565b6124b4600182600001546124d590919063ffffffff16565b816000018190555050565b6001816000016000828254019250508190555050565b600061251783836040518060400160405280601e81526020017f536166654d6174683a207375627472616374696f6e206f766572666c6f77000081525061256a565b905092915050565b60008060007fc5d2460186f7233c927e7db2dcc703c0e500b653ca82273b7bfad8045d85a47060001b9050833f91506000801b82141580156125615750808214155b92505050919050565b6000838311158290612617576040517f08c379a00000000000000000000000000000000000000000000000000000000081526004018080602001828103825283818151815260200191508051906020019080838360005b838110156125dc5780820151818401526020810190506125c1565b50505050905090810190601f1680156126095780820380516001836020036101000a031916815260200191505b509250505060405180910390fd5b5060008385039050809150509392505050565b828054600181600116156101000203166002900490600052602060002090601f016020900481019282601f1061266b57805160ff1916838001178555612699565b82800160010185558215612699579182015b8281111561269857825182559160200191906001019061267d565b5b5090506126a691906126d6565b5090565b8154818355818111156126d1578183600052602060002091820191016126d091906126d6565b5b505050565b6126f891905b808211156126f45760008160009055506001016126dc565b5090565b9056fe455243373231456e756d657261626c653a206f776e657220696e646578206f7574206f6620626f756e64734552433732313a207472616e7366657220746f206e6f6e20455243373231526563656976657220696d706c656d656e7465724552433732313a207472616e7366657220746f20746865207a65726f20616464726573734552433732313a206f70657261746f7220717565727920666f72206e6f6e6578697374656e7420746f6b656e4552433732313a20617070726f76652063616c6c6572206973206e6f74206f776e6572206e6f7220617070726f76656420666f7220616c6c4552433732313a2062616c616e636520717565727920666f7220746865207a65726f20616464726573734552433732313a206f776e657220717565727920666f72206e6f6e6578697374656e7420746f6b656e4552433732313a20617070726f76656420717565727920666f72206e6f6e6578697374656e7420746f6b656e4552433732313a207472616e73666572206f6620746f6b656e2074686174206973206e6f74206f776e4552433732314d657461646174613a2055524920717565727920666f72206e6f6e6578697374656e7420746f6b656e4552433732313a20617070726f76616c20746f2063757272656e74206f776e65724552433732313a207472616e736665722063616c6c6572206973206e6f74206f776e6572206e6f7220617070726f766564455243373231456e756d657261626c653a20676c6f62616c20696e646578206f7574206f6620626f756e6473a265627a7a72315820e45d08ba12b4d660d4625ef4ba52d581e9db75828e7a64f41757a014a04f88b264736f6c634300050c0032",
  "source": "pragma solidity ^0.5.0;\nimport \"./AuctionItem.sol\";\nimport \"@openzeppelin/contracts/math/Math.sol\";\n// import \"@openzeppelin/contracts/token/ERC721/ERC721Full.sol\";\n\ncontract AuctionFactory{\n    BlindAuction[] public auctions;\n    mapping (string => address) public auctionToAddress;\n    mapping (string => address) public tokenNameToAddress;\n    AuctionItem newToken;\n    address newAuc;\n    constructor() public {\n        newToken = new AuctionItem();\n        newAuc = address(newToken);\n    }\n    function createAuction (string memory _auctionName, uint _startPrice, uint _startBlock, uint _endBlock, string memory _ipfsHash)\n      public\n      {\n        require(_startPrice > 0,\"Start Price should be greater than zero\");\n        // set the new instance\n        BlindAuction newAuction = new BlindAuction(msg.sender, newAuc, _auctionName, _startPrice , _startBlock, _endBlock, _ipfsHash);\n        // tokenNameToAddress[_auctionName] = address(newToken);\n        // push the auction address to auctions array\n        auctions.push(newAuction);\n        auctionToAddress[_auctionName] = address(newAuction);\n    }\n    function returnAllAuctions() public view returns(BlindAuction[] memory){\n        return auctions;\n    }\n    function getAuctionAddress( string memory _auctionName) public view returns (address ){\n        return auctionToAddress[_auctionName];\n    }\n    function gettokenNameToAddress( string memory _auctionName) public view returns (address ){\n        return tokenNameToAddress[_auctionName];\n    }\n}\n\ncontract BlindAuction {\n    using Math for uint;\n    address public owner;\n    uint public bidIncrement;\n    uint public startBlock;\n    uint public endBlock;\n    string public ipfsHash;\n    string public auctionName;\n    AuctionItem newToken;\n\n    // state\n    bool public canceled;\n    uint public highestBindingBid;\n    address public highestBidder;\n    uint public tokenID;\n    mapping(address => uint256) public fundsByBidder;\n    bool ownerHasWithdrawn;\n    event BidPlaced(address bidder, uint bid, address highestBidder, uint highestBid, uint highestBindingBid);\n    event Withdraw(address withdrawer, address withdrawalAccount, uint amount);\n    event BidCanceled();\n\n    constructor(address _owner, address _newToken, string memory _auctionName, uint _startPrice, uint _startBlock, uint _endBlock, string memory _ipfsHash)\n        public\n        {\n        require(_startBlock < _endBlock,\"starting block should be greater than the ending block\");\n        require(_startBlock > block.number,\"start block number should be greater than the current block number\");\n        require(_owner != address(0),\"owner address should be valid\");\n        owner = _owner;\n        // tokenID = _tokenID;\n        auctionName = _auctionName;\n        bidIncrement = _startPrice;\n        startBlock = _startBlock;\n        endBlock = _endBlock;\n        ipfsHash = _ipfsHash;\n        // newToken = new AuctionItem();\n        newToken = AuctionItem(_newToken);\n        tokenID = newToken.mint(_auctionName);\n        // mint(msg.sender, _tokenID);\n    }\n    modifier onlyOwner {\n        require(msg.sender == owner,\"only owner is authorized to perform this action\");\n        _;\n    }\n\n    modifier ownerNotAllowed {\n        require(msg.sender != owner,\"only owner is not allowed to perform this action\");\n        _;\n    }\n\n    modifier afterAuctionStart {\n        require(block.number > startBlock,\"current block number should be greater than start block number\");\n        _;\n    }\n\n    modifier beforeAuctionEnd {\n        require(block.number < endBlock,\"current block number should be less than end block number\");\n        _;\n    }\n\n    modifier auctionNotCanceled {\n        require(!canceled,\"auction is canceled\");\n        _;\n    }\n\n    modifier auctionEndedOrCanceled {\n        require(block.number > endBlock || canceled,\"auction has ended or has been canceled\");\n        _;\n    }\n    modifier auctionEnded {\n        require(block.number > endBlock,\"auction has ended\");\n        _;\n    }\n    modifier auctionCanceled{\n        require(canceled,\"has been canceled\");\n        _;\n    }\n    function getHighestBid()\n        public\n        view\n        returns (uint)\n    {\n        return fundsByBidder[highestBidder];\n    }\n\n    function placeBid()\n        public\n        payable\n        afterAuctionStart\n        beforeAuctionEnd\n        auctionNotCanceled\n        ownerNotAllowed\n        returns (bool success)\n    {\n        // reject payments of 0 ETH\n        require(msg.value > 0, \"value should be positive\");\n\n        // calculate the user's total bid based on the current amount they've sent to the contract\n        // plus whatever has been sent with this transaction\n        uint newBid = fundsByBidder[msg.sender] + msg.value;\n\n        // if the user isn't even willing to overbid the highest binding bid, there's nothing for us\n        // to do except revert the transaction.\n        require(newBid > highestBindingBid,\"Bid should be greater than highest bid\");\n\n        // grab the previous highest bid (before updating fundsByBidder, in case msg.sender is the\n        // highestBidder and is just increasing their maximum bid).\n        uint highestBid = fundsByBidder[highestBidder];\n\n        fundsByBidder[msg.sender] = newBid;\n\n        if (newBid <= highestBid) {\n            // if the user has overbid the highestBindingBid but not the highestBid, we simply\n            // increase the highestBindingBid and leave highestBidder alone.\n\n            // note that this case is impossible if msg.sender == highestBidder because you can never\n            // bid less ETH than you've already bid.\n\n            highestBindingBid = min(newBid + bidIncrement, highestBid);\n        } else {\n            // if msg.sender is already the highest bidder, they must simply be wanting to raise\n            // their maximum bid, in which case we shouldn't increase the highestBindingBid.\n\n            // if the user is NOT highestBidder, and has overbid highestBid completely, we set them\n            // as the new highestBidder and recalculate highestBindingBid.\n\n            if (msg.sender != highestBidder) {\n                highestBidder = msg.sender;\n                highestBindingBid = min(newBid, highestBid + bidIncrement);\n            }\n            highestBid = newBid;\n        }\n\n        emit BidPlaced(msg.sender, newBid, highestBidder, highestBid, highestBindingBid);\n        return true;\n    }\n    function min(uint a, uint b)\n        private\n        pure\n        returns (uint)\n    {\n        if (a < b) return a;\n        return b;\n    }\n\n    function cancelAuction()\n        public\n        onlyOwner\n        beforeAuctionEnd\n        auctionNotCanceled\n        returns (bool success)\n    {\n        canceled = true;\n        emit BidCanceled();\n        return true;\n    }\n\n    function withdraw()\n        public\n        auctionEndedOrCanceled\n        returns (bool success)\n    {\n        address withdrawalAccount;\n        uint withdrawalAmount;\n\n        if (canceled) {\n            // if the auction was canceled, everyone should simply be allowed to withdraw their funds\n            withdrawalAccount = msg.sender;\n            withdrawalAmount = fundsByBidder[withdrawalAccount];\n\n        } else {\n            // the auction finished without being canceled\n\n            if (msg.sender == owner) {\n                // the auction's owner should be allowed to withdraw the highestBindingBid\n                withdrawalAccount = highestBidder;\n                withdrawalAmount = highestBindingBid;\n                ownerHasWithdrawn = true;\n                newToken.transferToken(owner, withdrawalAccount, tokenID);\n\n            } else if (msg.sender == highestBidder) {\n                // the highest bidder should only be allowed to withdraw the difference between their\n                // highest bid and the highestBindingBid\n                withdrawalAccount = highestBidder;\n                if (ownerHasWithdrawn) {\n                    withdrawalAmount = fundsByBidder[highestBidder];\n                } else {\n                    withdrawalAmount = fundsByBidder[highestBidder] - highestBindingBid;\n                }\n\n            } else {\n                // anyone who participated but did not win the auction should be allowed to withdraw\n                // the full amount of their funds\n                withdrawalAccount = msg.sender;\n                withdrawalAmount = fundsByBidder[withdrawalAccount];\n            }\n        }\n\n        require(withdrawalAmount > 0,\"withdrawal amount should be greater than zero\");\n\n        fundsByBidder[withdrawalAccount] -= withdrawalAmount;\n\n        // transfer the funds\n        msg.sender.transfer(withdrawalAmount);\n\n        emit Withdraw(msg.sender, withdrawalAccount, withdrawalAmount);\n\n        return true;\n    }\n\n}\n",
  "sourcePath": "/home/mandy/consensys2019/consensys2019_auction/src/contracts/BlindAunction.sol",
  "compiler": {
    "name": "solc",
    "version": "0.5.12+commit.7709ece9.Emscripten.clang"
  },
  "schemaVersion": "3.0.20",
  "updatedAt": "2020-02-02T10:23:26.873Z",
  "networkType": "ethereum",
  "devdoc": {
    "methods": {}
  },
  "userdoc": {
    "methods": {}
  }
}