{
  "contractName": "BlindAuction",
  "abi": [
    {
      "inputs": [
        {
          "internalType": "address",
          "name": "_owner",
          "type": "address"
        },
        {
          "internalType": "address",
          "name": "_newToken",
          "type": "address"
        },
        {
          "internalType": "string",
          "name": "_auctionName",
          "type": "string"
        },
        {
          "internalType": "uint256",
          "name": "_startPrice",
          "type": "uint256"
        },
        {
          "internalType": "uint256",
          "name": "_startBlock",
          "type": "uint256"
        },
        {
          "internalType": "uint256",
          "name": "_endBlock",
          "type": "uint256"
        },
        {
          "internalType": "string",
          "name": "_ipfsHash",
          "type": "string"
        }
      ],
      "payable": false,
      "stateMutability": "nonpayable",
      "type": "constructor"
    },
    {
      "anonymous": false,
      "inputs": [],
      "name": "BidCanceled",
      "type": "event"
    },
    {
      "anonymous": false,
      "inputs": [
        {
          "indexed": false,
          "internalType": "address",
          "name": "bidder",
          "type": "address"
        },
        {
          "indexed": false,
          "internalType": "uint256",
          "name": "bid",
          "type": "uint256"
        },
        {
          "indexed": false,
          "internalType": "address",
          "name": "highestBidder",
          "type": "address"
        },
        {
          "indexed": false,
          "internalType": "uint256",
          "name": "highestBid",
          "type": "uint256"
        },
        {
          "indexed": false,
          "internalType": "uint256",
          "name": "highestBindingBid",
          "type": "uint256"
        }
      ],
      "name": "BidPlaced",
      "type": "event"
    },
    {
      "anonymous": false,
      "inputs": [
        {
          "indexed": false,
          "internalType": "address",
          "name": "withdrawer",
          "type": "address"
        },
        {
          "indexed": false,
          "internalType": "address",
          "name": "withdrawalAccount",
          "type": "address"
        },
        {
          "indexed": false,
          "internalType": "uint256",
          "name": "amount",
          "type": "uint256"
        }
      ],
      "name": "Withdraw",
      "type": "event"
    },
    {
      "constant": true,
      "inputs": [],
      "name": "auctionName",
      "outputs": [
        {
          "internalType": "string",
          "name": "",
          "type": "string"
        }
      ],
      "payable": false,
      "stateMutability": "view",
      "type": "function"
    },
    {
      "constant": true,
      "inputs": [],
      "name": "bidIncrement",
      "outputs": [
        {
          "internalType": "uint256",
          "name": "",
          "type": "uint256"
        }
      ],
      "payable": false,
      "stateMutability": "view",
      "type": "function"
    },
    {
      "constant": true,
      "inputs": [],
      "name": "canceled",
      "outputs": [
        {
          "internalType": "bool",
          "name": "",
          "type": "bool"
        }
      ],
      "payable": false,
      "stateMutability": "view",
      "type": "function"
    },
    {
      "constant": true,
      "inputs": [],
      "name": "endBlock",
      "outputs": [
        {
          "internalType": "uint256",
          "name": "",
          "type": "uint256"
        }
      ],
      "payable": false,
      "stateMutability": "view",
      "type": "function"
    },
    {
      "constant": true,
      "inputs": [
        {
          "internalType": "address",
          "name": "",
          "type": "address"
        }
      ],
      "name": "fundsByBidder",
      "outputs": [
        {
          "internalType": "uint256",
          "name": "",
          "type": "uint256"
        }
      ],
      "payable": false,
      "stateMutability": "view",
      "type": "function"
    },
    {
      "constant": true,
      "inputs": [],
      "name": "highestBidder",
      "outputs": [
        {
          "internalType": "address",
          "name": "",
          "type": "address"
        }
      ],
      "payable": false,
      "stateMutability": "view",
      "type": "function"
    },
    {
      "constant": true,
      "inputs": [],
      "name": "highestBindingBid",
      "outputs": [
        {
          "internalType": "uint256",
          "name": "",
          "type": "uint256"
        }
      ],
      "payable": false,
      "stateMutability": "view",
      "type": "function"
    },
    {
      "constant": true,
      "inputs": [],
      "name": "ipfsHash",
      "outputs": [
        {
          "internalType": "string",
          "name": "",
          "type": "string"
        }
      ],
      "payable": false,
      "stateMutability": "view",
      "type": "function"
    },
    {
      "constant": true,
      "inputs": [],
      "name": "owner",
      "outputs": [
        {
          "internalType": "address",
          "name": "",
          "type": "address"
        }
      ],
      "payable": false,
      "stateMutability": "view",
      "type": "function"
    },
    {
      "constant": true,
      "inputs": [],
      "name": "startBlock",
      "outputs": [
        {
          "internalType": "uint256",
          "name": "",
          "type": "uint256"
        }
      ],
      "payable": false,
      "stateMutability": "view",
      "type": "function"
    },
    {
      "constant": true,
      "inputs": [],
      "name": "tokenID",
      "outputs": [
        {
          "internalType": "uint256",
          "name": "",
          "type": "uint256"
        }
      ],
      "payable": false,
      "stateMutability": "view",
      "type": "function"
    },
    {
      "constant": true,
      "inputs": [],
      "name": "getHighestBid",
      "outputs": [
        {
          "internalType": "uint256",
          "name": "",
          "type": "uint256"
        }
      ],
      "payable": false,
      "stateMutability": "view",
      "type": "function"
    },
    {
      "constant": false,
      "inputs": [],
      "name": "placeBid",
      "outputs": [
        {
          "internalType": "bool",
          "name": "success",
          "type": "bool"
        }
      ],
      "payable": true,
      "stateMutability": "payable",
      "type": "function"
    },
    {
      "constant": false,
      "inputs": [],
      "name": "cancelAuction",
      "outputs": [
        {
          "internalType": "bool",
          "name": "success",
          "type": "bool"
        }
      ],
      "payable": false,
      "stateMutability": "nonpayable",
      "type": "function"
    },
    {
      "constant": false,
      "inputs": [],
      "name": "withdraw",
      "outputs": [
        {
          "internalType": "bool",
          "name": "success",
          "type": "bool"
        }
      ],
      "payable": false,
      "stateMutability": "nonpayable",
      "type": "function"
    }
  ],
  "bytecode": "0x60806040523480156200001157600080fd5b5060405162001c0238038062001c02833981810160405260e08110156200003757600080fd5b810190808051906020019092919080519060200190929190805160405193929190846401000000008211156200006c57600080fd5b838201915060208201858111156200008357600080fd5b8251866001820283011164010000000082111715620000a157600080fd5b8083526020830192505050908051906020019080838360005b83811015620000d7578082015181840152602081019050620000ba565b50505050905090810190601f168015620001055780820380516001836020036101000a031916815260200191505b50604052602001805190602001909291908051906020019092919080519060200190929190805160405193929190846401000000008211156200014757600080fd5b838201915060208201858111156200015e57600080fd5b82518660018202830111640100000000821117156200017c57600080fd5b8083526020830192505050908051906020019080838360005b83811015620001b257808201518184015260208101905062000195565b50505050905090810190601f168015620001e05780820380516001836020036101000a031916815260200191505b5060405250505081831062000241576040517f08c379a000000000000000000000000000000000000000000000000000000000815260040180806020018281038252603681526020018062001bcc6036913960400191505060405180910390fd5b4383116200029b576040517f08c379a000000000000000000000000000000000000000000000000000000000815260040180806020018281038252604281526020018062001b8a6042913960600191505060405180910390fd5b600073ffffffffffffffffffffffffffffffffffffffff168773ffffffffffffffffffffffffffffffffffffffff1614156200033f576040517f08c379a000000000000000000000000000000000000000000000000000000000815260040180806020018281038252601d8152602001807f6f776e657220616464726573732073686f756c642062652076616c696400000081525060200191505060405180910390fd5b866000806101000a81548173ffffffffffffffffffffffffffffffffffffffff021916908373ffffffffffffffffffffffffffffffffffffffff16021790555084600590805190602001906200039792919062000535565b508360018190555082600281905550816003819055508060049080519060200190620003c592919062000535565b5085600660006101000a81548173ffffffffffffffffffffffffffffffffffffffff021916908373ffffffffffffffffffffffffffffffffffffffff160217905550600660009054906101000a900473ffffffffffffffffffffffffffffffffffffffff1673ffffffffffffffffffffffffffffffffffffffff1663d85d3d27866040518263ffffffff1660e01b81526004018080602001828103825283818151815260200191508051906020019080838360005b83811015620004975780820151818401526020810190506200047a565b50505050905090810190601f168015620004c55780820380516001836020036101000a031916815260200191505b5092505050602060405180830381600087803b158015620004e557600080fd5b505af1158015620004fa573d6000803e3d6000fd5b505050506040513d60208110156200051157600080fd5b810190808051906020019092919050505060098190555050505050505050620005e4565b828054600181600116156101000203166002900490600052602060002090601f016020900481019282601f106200057857805160ff1916838001178555620005a9565b82800160010185558215620005a9579182015b82811115620005a85782518255916020019190600101906200058b565b5b509050620005b89190620005bc565b5090565b620005e191905b80821115620005dd576000816000905550600101620005c3565b5090565b90565b61159680620005f46000396000f3fe6080604052600436106100e85760003560e01c806391f901571161008a578063c63d99db11610059578063c63d99db1461038f578063ce10cf801461041f578063ecfc7ecc14610484578063f5b56c56146104a6576100e8565b806391f9015714610252578063a5c42ef1146102a9578063b3cc167a146102d4578063c623674f146102ff576100e8565b806348cd4cb1116100c657806348cd4cb1146101765780634979440a146101a15780638da5cb5b146101cc5780638fa8b79014610223576100e8565b8063083c6323146100ed5780633ccfd60b146101185780633f9942ff14610147575b600080fd5b3480156100f957600080fd5b506101026104d1565b6040518082815260200191505060405180910390f35b34801561012457600080fd5b5061012d6104d7565b604051808215151515815260200191505060405180910390f35b34801561015357600080fd5b5061015c610aa7565b604051808215151515815260200191505060405180910390f35b34801561018257600080fd5b5061018b610aba565b6040518082815260200191505060405180910390f35b3480156101ad57600080fd5b506101b6610ac0565b6040518082815260200191505060405180910390f35b3480156101d857600080fd5b506101e1610b29565b604051808273ffffffffffffffffffffffffffffffffffffffff1673ffffffffffffffffffffffffffffffffffffffff16815260200191505060405180910390f35b34801561022f57600080fd5b50610238610b4e565b604051808215151515815260200191505060405180910390f35b34801561025e57600080fd5b50610267610d20565b604051808273ffffffffffffffffffffffffffffffffffffffff1673ffffffffffffffffffffffffffffffffffffffff16815260200191505060405180910390f35b3480156102b557600080fd5b506102be610d46565b6040518082815260200191505060405180910390f35b3480156102e057600080fd5b506102e9610d4c565b6040518082815260200191505060405180910390f35b34801561030b57600080fd5b50610314610d52565b6040518080602001828103825283818151815260200191508051906020019080838360005b83811015610354578082015181840152602081019050610339565b50505050905090810190601f1680156103815780820380516001836020036101000a031916815260200191505b509250505060405180910390f35b34801561039b57600080fd5b506103a4610df0565b6040518080602001828103825283818151815260200191508051906020019080838360005b838110156103e45780820151818401526020810190506103c9565b50505050905090810190601f1680156104115780820380516001836020036101000a031916815260200191505b509250505060405180910390f35b34801561042b57600080fd5b5061046e6004803603602081101561044257600080fd5b81019080803573ffffffffffffffffffffffffffffffffffffffff169060200190929190505050610e8e565b6040518082815260200191505060405180910390f35b61048c610ea6565b604051808215151515815260200191505060405180910390f35b3480156104b257600080fd5b506104bb6113f0565b6040518082815260200191505060405180910390f35b60035481565b60006003544311806104f55750600660149054906101000a900460ff165b61054a576040517f08c379a000000000000000000000000000000000000000000000000000000000815260040180806020018281038252602681526020018061148a6026913960400191505060405180910390fd5b600080600660149054906101000a900460ff16156105ac57339150600a60008373ffffffffffffffffffffffffffffffffffffffff1673ffffffffffffffffffffffffffffffffffffffff168152602001908152602001600020549050610912565b6000809054906101000a900473ffffffffffffffffffffffffffffffffffffffff1673ffffffffffffffffffffffffffffffffffffffff163373ffffffffffffffffffffffffffffffffffffffff16141561076357600860009054906101000a900473ffffffffffffffffffffffffffffffffffffffff16915060075490506001600b60006101000a81548160ff021916908315150217905550600660009054906101000a900473ffffffffffffffffffffffffffffffffffffffff1673ffffffffffffffffffffffffffffffffffffffff1663f5537ede6000809054906101000a900473ffffffffffffffffffffffffffffffffffffffff16846009546040518463ffffffff1660e01b8152600401808473ffffffffffffffffffffffffffffffffffffffff1673ffffffffffffffffffffffffffffffffffffffff1681526020018373ffffffffffffffffffffffffffffffffffffffff1673ffffffffffffffffffffffffffffffffffffffff1681526020018281526020019350505050600060405180830381600087803b15801561074657600080fd5b505af115801561075a573d6000803e3d6000fd5b50505050610911565b600860009054906101000a900473ffffffffffffffffffffffffffffffffffffffff1673ffffffffffffffffffffffffffffffffffffffff163373ffffffffffffffffffffffffffffffffffffffff1614156108ca57600860009054906101000a900473ffffffffffffffffffffffffffffffffffffffff169150600b60009054906101000a900460ff161561085c57600a6000600860009054906101000a900473ffffffffffffffffffffffffffffffffffffffff1673ffffffffffffffffffffffffffffffffffffffff1673ffffffffffffffffffffffffffffffffffffffff1681526020019081526020016000205490506108c5565b600754600a6000600860009054906101000a900473ffffffffffffffffffffffffffffffffffffffff1673ffffffffffffffffffffffffffffffffffffffff1673ffffffffffffffffffffffffffffffffffffffff168152602001908152602001600020540390505b610910565b339150600a60008373ffffffffffffffffffffffffffffffffffffffff1673ffffffffffffffffffffffffffffffffffffffff1681526020019081526020016000205490505b5b5b6000811161096b576040517f08c379a000000000000000000000000000000000000000000000000000000000815260040180806020018281038252602d815260200180611506602d913960400191505060405180910390fd5b80600a60008473ffffffffffffffffffffffffffffffffffffffff1673ffffffffffffffffffffffffffffffffffffffff168152602001908152602001600020600082825403925050819055503373ffffffffffffffffffffffffffffffffffffffff166108fc829081150290604051600060405180830381858888f193505050501580156109fe573d6000803e3d6000fd5b507f9b1bfa7fa9ee420a16e124f794c35ac9f90472acc99140eb2f6447c714cad8eb338383604051808473ffffffffffffffffffffffffffffffffffffffff1673ffffffffffffffffffffffffffffffffffffffff1681526020018373ffffffffffffffffffffffffffffffffffffffff1673ffffffffffffffffffffffffffffffffffffffff168152602001828152602001935050505060405180910390a160019250505090565b600660149054906101000a900460ff1681565b60025481565b6000600a6000600860009054906101000a900473ffffffffffffffffffffffffffffffffffffffff1673ffffffffffffffffffffffffffffffffffffffff1673ffffffffffffffffffffffffffffffffffffffff16815260200190815260200160002054905090565b6000809054906101000a900473ffffffffffffffffffffffffffffffffffffffff1681565b60008060009054906101000a900473ffffffffffffffffffffffffffffffffffffffff1673ffffffffffffffffffffffffffffffffffffffff163373ffffffffffffffffffffffffffffffffffffffff1614610bf5576040517f08c379a000000000000000000000000000000000000000000000000000000000815260040180806020018281038252602f815260200180611533602f913960400191505060405180910390fd5b6003544310610c4f576040517f08c379a00000000000000000000000000000000000000000000000000000000081526004018080602001828103825260398152602001806114516039913960400191505060405180910390fd5b600660149054906101000a900460ff1615610cd2576040517f08c379a00000000000000000000000000000000000000000000000000000000081526004018080602001828103825260138152602001807f61756374696f6e2069732063616e63656c65640000000000000000000000000081525060200191505060405180910390fd5b6001600660146101000a81548160ff0219169083151502179055507f437c69c84dab0c17ae0132a40f5406a040298bb09313766e500b4030d61feba760405160405180910390a16001905090565b600860009054906101000a900473ffffffffffffffffffffffffffffffffffffffff1681565b60095481565b60015481565b60048054600181600116156101000203166002900480601f016020809104026020016040519081016040528092919081815260200182805460018160011615610100020316600290048015610de85780601f10610dbd57610100808354040283529160200191610de8565b820191906000526020600020905b815481529060010190602001808311610dcb57829003601f168201915b505050505081565b60058054600181600116156101000203166002900480601f016020809104026020016040519081016040528092919081815260200182805460018160011615610100020316600290048015610e865780601f10610e5b57610100808354040283529160200191610e86565b820191906000526020600020905b815481529060010190602001808311610e6957829003601f168201915b505050505081565b600a6020528060005260406000206000915090505481565b60006002544311610f02576040517f08c379a000000000000000000000000000000000000000000000000000000000815260040180806020018281038252603e815260200180611413603e913960400191505060405180910390fd5b6003544310610f5c576040517f08c379a00000000000000000000000000000000000000000000000000000000081526004018080602001828103825260398152602001806114516039913960400191505060405180910390fd5b600660149054906101000a900460ff1615610fdf576040517f08c379a00000000000000000000000000000000000000000000000000000000081526004018080602001828103825260138152602001807f61756374696f6e2069732063616e63656c65640000000000000000000000000081525060200191505060405180910390fd5b6000809054906101000a900473ffffffffffffffffffffffffffffffffffffffff1673ffffffffffffffffffffffffffffffffffffffff163373ffffffffffffffffffffffffffffffffffffffff161415611085576040517f08c379a00000000000000000000000000000000000000000000000000000000081526004018080602001828103825260308152602001806114d66030913960400191505060405180910390fd5b600034116110fb576040517f08c379a00000000000000000000000000000000000000000000000000000000081526004018080602001828103825260188152602001807f76616c75652073686f756c6420626520706f736974697665000000000000000081525060200191505060405180910390fd5b600034600a60003373ffffffffffffffffffffffffffffffffffffffff1673ffffffffffffffffffffffffffffffffffffffff16815260200190815260200160002054019050600754811161119b576040517f08c379a00000000000000000000000000000000000000000000000000000000081526004018080602001828103825260268152602001806114b06026913960400191505060405180910390fd5b6000600a6000600860009054906101000a900473ffffffffffffffffffffffffffffffffffffffff1673ffffffffffffffffffffffffffffffffffffffff1673ffffffffffffffffffffffffffffffffffffffff16815260200190815260200160002054905081600a60003373ffffffffffffffffffffffffffffffffffffffff1673ffffffffffffffffffffffffffffffffffffffff168152602001908152602001600020819055508082116112655761125a6001548301826113f6565b600781905550611314565b600860009054906101000a900473ffffffffffffffffffffffffffffffffffffffff1673ffffffffffffffffffffffffffffffffffffffff163373ffffffffffffffffffffffffffffffffffffffff16146113105733600860006101000a81548173ffffffffffffffffffffffffffffffffffffffff021916908373ffffffffffffffffffffffffffffffffffffffff1602179055506113098260015483016113f6565b6007819055505b8190505b7fd9c002a96bcc0e55dd94d4add60b8695b6edda5ff90ed03fb9ce43ee632da1ec3383600860009054906101000a900473ffffffffffffffffffffffffffffffffffffffff1684600754604051808673ffffffffffffffffffffffffffffffffffffffff1673ffffffffffffffffffffffffffffffffffffffff1681526020018581526020018473ffffffffffffffffffffffffffffffffffffffff1673ffffffffffffffffffffffffffffffffffffffff1681526020018381526020018281526020019550505050505060405180910390a160019250505090565b60075481565b6000818310156114085782905061140c565b8190505b9291505056fe63757272656e7420626c6f636b206e756d6265722073686f756c642062652067726561746572207468616e20737461727420626c6f636b206e756d62657263757272656e7420626c6f636b206e756d6265722073686f756c64206265206c657373207468616e20656e6420626c6f636b206e756d62657261756374696f6e2068617320656e646564206f7220686173206265656e2063616e63656c65644269642073686f756c642062652067726561746572207468616e2068696768657374206269646f6e6c79206f776e6572206973206e6f7420616c6c6f77656420746f20706572666f726d207468697320616374696f6e7769746864726177616c20616d6f756e742073686f756c642062652067726561746572207468616e207a65726f6f6e6c79206f776e657220697320617574686f72697a656420746f20706572666f726d207468697320616374696f6ea265627a7a723158207060fb770346b72028302415781490205e91947411fe5e413b105f5431102a9a64736f6c634300050c0032737461727420626c6f636b206e756d6265722073686f756c642062652067726561746572207468616e207468652063757272656e7420626c6f636b206e756d6265727374617274696e6720626c6f636b2073686f756c642062652067726561746572207468616e2074686520656e64696e6720626c6f636b",
  "source": "pragma solidity ^0.5.0;\nimport \"./AuctionItem.sol\";\nimport \"@openzeppelin/contracts/math/Math.sol\";\n// import \"@openzeppelin/contracts/token/ERC721/ERC721Full.sol\";\n\ncontract AuctionFactory{\n    BlindAuction[] public auctions;\n    mapping (string => address) public auctionToAddress;\n    mapping (string => address) public tokenNameToAddress;\n    AuctionItem newToken;\n    address newAuc;\n    constructor() public {\n        newToken = new AuctionItem();\n        newAuc = address(newToken);\n    }\n    function createAuction (string memory _auctionName, uint _startPrice, uint _startBlock, uint _endBlock, string memory _ipfsHash)\n      public\n      {\n        require(_startPrice > 0,\"Start Price should be greater than zero\");\n        // set the new instance\n        BlindAuction newAuction = new BlindAuction(msg.sender, newAuc, _auctionName, _startPrice , _startBlock, _endBlock, _ipfsHash);\n        // tokenNameToAddress[_auctionName] = address(newToken);\n        // push the auction address to auctions array\n        auctions.push(newAuction);\n        auctionToAddress[_auctionName] = address(newAuction);\n    }\n    function returnAllAuctions() public view returns(BlindAuction[] memory){\n        return auctions;\n    }\n    function getAuctionAddress( string memory _auctionName) public view returns (address ){\n        return auctionToAddress[_auctionName];\n    }\n    function gettokenNameToAddress( string memory _auctionName) public view returns (address ){\n        return tokenNameToAddress[_auctionName];\n    }\n}\n\ncontract BlindAuction {\n    using Math for uint;\n    address public owner;\n    uint public bidIncrement;\n    uint public startBlock;\n    uint public endBlock;\n    string public ipfsHash;\n    string public auctionName;\n    AuctionItem newToken;\n\n    // state\n    bool public canceled;\n    uint public highestBindingBid;\n    address public highestBidder;\n    uint public tokenID;\n    mapping(address => uint256) public fundsByBidder;\n    bool ownerHasWithdrawn;\n    event BidPlaced(address bidder, uint bid, address highestBidder, uint highestBid, uint highestBindingBid);\n    event Withdraw(address withdrawer, address withdrawalAccount, uint amount);\n    event BidCanceled();\n\n    constructor(address _owner, address _newToken, string memory _auctionName, uint _startPrice, uint _startBlock, uint _endBlock, string memory _ipfsHash)\n        public\n        {\n        require(_startBlock < _endBlock,\"starting block should be greater than the ending block\");\n        require(_startBlock > block.number,\"start block number should be greater than the current block number\");\n        require(_owner != address(0),\"owner address should be valid\");\n        owner = _owner;\n        // tokenID = _tokenID;\n        auctionName = _auctionName;\n        bidIncrement = _startPrice;\n        startBlock = _startBlock;\n        endBlock = _endBlock;\n        ipfsHash = _ipfsHash;\n        // newToken = new AuctionItem();\n        newToken = AuctionItem(_newToken);\n        tokenID = newToken.mint(_auctionName);\n        // mint(msg.sender, _tokenID);\n    }\n    modifier onlyOwner {\n        require(msg.sender == owner,\"only owner is authorized to perform this action\");\n        _;\n    }\n\n    modifier ownerNotAllowed {\n        require(msg.sender != owner,\"only owner is not allowed to perform this action\");\n        _;\n    }\n\n    modifier afterAuctionStart {\n        require(block.number > startBlock,\"current block number should be greater than start block number\");\n        _;\n    }\n\n    modifier beforeAuctionEnd {\n        require(block.number < endBlock,\"current block number should be less than end block number\");\n        _;\n    }\n\n    modifier auctionNotCanceled {\n        require(!canceled,\"auction is canceled\");\n        _;\n    }\n\n    modifier auctionEndedOrCanceled {\n        require(block.number > endBlock || canceled,\"auction has ended or has been canceled\");\n        _;\n    }\n    modifier auctionEnded {\n        require(block.number > endBlock,\"auction has ended\");\n        _;\n    }\n    modifier auctionCanceled{\n        require(canceled,\"has been canceled\");\n        _;\n    }\n    function getHighestBid()\n        public\n        view\n        returns (uint)\n    {\n        return fundsByBidder[highestBidder];\n    }\n\n    function placeBid()\n        public\n        payable\n        afterAuctionStart\n        beforeAuctionEnd\n        auctionNotCanceled\n        ownerNotAllowed\n        returns (bool success)\n    {\n        // reject payments of 0 ETH\n        require(msg.value > 0, \"value should be positive\");\n\n        // calculate the user's total bid based on the current amount they've sent to the contract\n        // plus whatever has been sent with this transaction\n        uint newBid = fundsByBidder[msg.sender] + msg.value;\n\n        // if the user isn't even willing to overbid the highest binding bid, there's nothing for us\n        // to do except revert the transaction.\n        require(newBid > highestBindingBid,\"Bid should be greater than highest bid\");\n\n        // grab the previous highest bid (before updating fundsByBidder, in case msg.sender is the\n        // highestBidder and is just increasing their maximum bid).\n        uint highestBid = fundsByBidder[highestBidder];\n\n        fundsByBidder[msg.sender] = newBid;\n\n        if (newBid <= highestBid) {\n            // if the user has overbid the highestBindingBid but not the highestBid, we simply\n            // increase the highestBindingBid and leave highestBidder alone.\n\n            // note that this case is impossible if msg.sender == highestBidder because you can never\n            // bid less ETH than you've already bid.\n\n            highestBindingBid = min(newBid + bidIncrement, highestBid);\n        } else {\n            // if msg.sender is already the highest bidder, they must simply be wanting to raise\n            // their maximum bid, in which case we shouldn't increase the highestBindingBid.\n\n            // if the user is NOT highestBidder, and has overbid highestBid completely, we set them\n            // as the new highestBidder and recalculate highestBindingBid.\n\n            if (msg.sender != highestBidder) {\n                highestBidder = msg.sender;\n                highestBindingBid = min(newBid, highestBid + bidIncrement);\n            }\n            highestBid = newBid;\n        }\n\n        emit BidPlaced(msg.sender, newBid, highestBidder, highestBid, highestBindingBid);\n        return true;\n    }\n    function min(uint a, uint b)\n        private\n        pure\n        returns (uint)\n    {\n        if (a < b) return a;\n        return b;\n    }\n\n    function cancelAuction()\n        public\n        onlyOwner\n        beforeAuctionEnd\n        auctionNotCanceled\n        returns (bool success)\n    {\n        canceled = true;\n        emit BidCanceled();\n        return true;\n    }\n\n    function withdraw()\n        public\n        auctionEndedOrCanceled\n        returns (bool success)\n    {\n        address withdrawalAccount;\n        uint withdrawalAmount;\n\n        if (canceled) {\n            // if the auction was canceled, everyone should simply be allowed to withdraw their funds\n            withdrawalAccount = msg.sender;\n            withdrawalAmount = fundsByBidder[withdrawalAccount];\n\n        } else {\n            // the auction finished without being canceled\n\n            if (msg.sender == owner) {\n                // the auction's owner should be allowed to withdraw the highestBindingBid\n                withdrawalAccount = highestBidder;\n                withdrawalAmount = highestBindingBid;\n                ownerHasWithdrawn = true;\n                newToken.transferToken(owner, withdrawalAccount, tokenID);\n\n            } else if (msg.sender == highestBidder) {\n                // the highest bidder should only be allowed to withdraw the difference between their\n                // highest bid and the highestBindingBid\n                withdrawalAccount = highestBidder;\n                if (ownerHasWithdrawn) {\n                    withdrawalAmount = fundsByBidder[highestBidder];\n                } else {\n                    withdrawalAmount = fundsByBidder[highestBidder] - highestBindingBid;\n                }\n\n            } else {\n                // anyone who participated but did not win the auction should be allowed to withdraw\n                // the full amount of their funds\n                withdrawalAccount = msg.sender;\n                withdrawalAmount = fundsByBidder[withdrawalAccount];\n            }\n        }\n\n        require(withdrawalAmount > 0,\"withdrawal amount should be greater than zero\");\n\n        fundsByBidder[withdrawalAccount] -= withdrawalAmount;\n\n        // transfer the funds\n        msg.sender.transfer(withdrawalAmount);\n\n        emit Withdraw(msg.sender, withdrawalAccount, withdrawalAmount);\n\n        return true;\n    }\n\n}\n",
  "sourcePath": "/home/mandy/consensys2019/consensys2019_auction/src/contracts/BlindAunction.sol",
  "compiler": {
    "name": "solc",
    "version": "0.5.12+commit.7709ece9.Emscripten.clang"
  },
  "schemaVersion": "3.0.20",
  "updatedAt": "2020-02-02T10:23:25.181Z",
  "devdoc": {
    "methods": {}
  },
  "userdoc": {
    "methods": {}
  }
}