{
  "contractName": "BlindAuction",
  "abi": [
    {
      "inputs": [
        {
          "internalType": "address",
          "name": "_owner",
          "type": "address"
        },
        {
          "internalType": "uint256",
          "name": "_startPrice",
          "type": "uint256"
        },
        {
          "internalType": "uint256",
          "name": "_startBlock",
          "type": "uint256"
        },
        {
          "internalType": "uint256",
          "name": "_endBlock",
          "type": "uint256"
        },
        {
          "internalType": "string",
          "name": "_ipfsHash",
          "type": "string"
        }
      ],
      "payable": false,
      "stateMutability": "nonpayable",
      "type": "constructor"
    },
    {
      "anonymous": false,
      "inputs": [],
      "name": "BidCanceled",
      "type": "event"
    },
    {
      "anonymous": false,
      "inputs": [
        {
          "indexed": false,
          "internalType": "address",
          "name": "bidder",
          "type": "address"
        },
        {
          "indexed": false,
          "internalType": "uint256",
          "name": "bid",
          "type": "uint256"
        },
        {
          "indexed": false,
          "internalType": "address",
          "name": "highestBidder",
          "type": "address"
        },
        {
          "indexed": false,
          "internalType": "uint256",
          "name": "highestBid",
          "type": "uint256"
        },
        {
          "indexed": false,
          "internalType": "uint256",
          "name": "highestBindingBid",
          "type": "uint256"
        }
      ],
      "name": "BidPlaced",
      "type": "event"
    },
    {
      "anonymous": false,
      "inputs": [
        {
          "indexed": false,
          "internalType": "address",
          "name": "withdrawer",
          "type": "address"
        },
        {
          "indexed": false,
          "internalType": "address",
          "name": "withdrawalAccount",
          "type": "address"
        },
        {
          "indexed": false,
          "internalType": "uint256",
          "name": "amount",
          "type": "uint256"
        }
      ],
      "name": "Withdraw",
      "type": "event"
    },
    {
      "constant": true,
      "inputs": [],
      "name": "bidIncrement",
      "outputs": [
        {
          "internalType": "uint256",
          "name": "",
          "type": "uint256"
        }
      ],
      "payable": false,
      "stateMutability": "view",
      "type": "function"
    },
    {
      "constant": true,
      "inputs": [],
      "name": "canceled",
      "outputs": [
        {
          "internalType": "bool",
          "name": "",
          "type": "bool"
        }
      ],
      "payable": false,
      "stateMutability": "view",
      "type": "function"
    },
    {
      "constant": true,
      "inputs": [],
      "name": "endBlock",
      "outputs": [
        {
          "internalType": "uint256",
          "name": "",
          "type": "uint256"
        }
      ],
      "payable": false,
      "stateMutability": "view",
      "type": "function"
    },
    {
      "constant": true,
      "inputs": [
        {
          "internalType": "address",
          "name": "",
          "type": "address"
        }
      ],
      "name": "fundsByBidder",
      "outputs": [
        {
          "internalType": "uint256",
          "name": "",
          "type": "uint256"
        }
      ],
      "payable": false,
      "stateMutability": "view",
      "type": "function"
    },
    {
      "constant": true,
      "inputs": [],
      "name": "highestBidder",
      "outputs": [
        {
          "internalType": "address",
          "name": "",
          "type": "address"
        }
      ],
      "payable": false,
      "stateMutability": "view",
      "type": "function"
    },
    {
      "constant": true,
      "inputs": [],
      "name": "highestBindingBid",
      "outputs": [
        {
          "internalType": "uint256",
          "name": "",
          "type": "uint256"
        }
      ],
      "payable": false,
      "stateMutability": "view",
      "type": "function"
    },
    {
      "constant": true,
      "inputs": [],
      "name": "ipfsHash",
      "outputs": [
        {
          "internalType": "string",
          "name": "",
          "type": "string"
        }
      ],
      "payable": false,
      "stateMutability": "view",
      "type": "function"
    },
    {
      "constant": true,
      "inputs": [],
      "name": "owner",
      "outputs": [
        {
          "internalType": "address",
          "name": "",
          "type": "address"
        }
      ],
      "payable": false,
      "stateMutability": "view",
      "type": "function"
    },
    {
      "constant": true,
      "inputs": [],
      "name": "startBlock",
      "outputs": [
        {
          "internalType": "uint256",
          "name": "",
          "type": "uint256"
        }
      ],
      "payable": false,
      "stateMutability": "view",
      "type": "function"
    },
    {
      "constant": true,
      "inputs": [],
      "name": "getHighestBid",
      "outputs": [
        {
          "internalType": "uint256",
          "name": "",
          "type": "uint256"
        }
      ],
      "payable": false,
      "stateMutability": "view",
      "type": "function"
    },
    {
      "constant": false,
      "inputs": [],
      "name": "placeBid",
      "outputs": [
        {
          "internalType": "bool",
          "name": "success",
          "type": "bool"
        }
      ],
      "payable": true,
      "stateMutability": "payable",
      "type": "function"
    },
    {
      "constant": false,
      "inputs": [],
      "name": "cancelAuction",
      "outputs": [
        {
          "internalType": "bool",
          "name": "success",
          "type": "bool"
        }
      ],
      "payable": false,
      "stateMutability": "nonpayable",
      "type": "function"
    },
    {
      "constant": false,
      "inputs": [],
      "name": "withdraw",
      "outputs": [
        {
          "internalType": "bool",
          "name": "success",
          "type": "bool"
        }
      ],
      "payable": false,
      "stateMutability": "nonpayable",
      "type": "function"
    }
  ],
  "bytecode": "0x60806040523480156200001157600080fd5b506040516200172138038062001721833981810160405260a08110156200003757600080fd5b8101908080519060200190929190805190602001909291908051906020019092919080519060200190929190805160405193929190846401000000008211156200008057600080fd5b838201915060208201858111156200009757600080fd5b8251866001820283011164010000000082111715620000b557600080fd5b8083526020830192505050908051906020019080838360005b83811015620000eb578082015181840152602081019050620000ce565b50505050905090810190601f168015620001195780820380516001836020036101000a031916815260200191505b506040525050508183106200017a576040517f08c379a0000000000000000000000000000000000000000000000000000000008152600401808060200182810382526036815260200180620016eb6036913960400191505060405180910390fd5b438310620001d4576040517f08c379a0000000000000000000000000000000000000000000000000000000008152600401808060200182810382526042815260200180620016a96042913960600191505060405180910390fd5b600073ffffffffffffffffffffffffffffffffffffffff168573ffffffffffffffffffffffffffffffffffffffff16141562000278576040517f08c379a000000000000000000000000000000000000000000000000000000000815260040180806020018281038252601d8152602001807f6f776e657220616464726573732073686f756c642062652076616c696400000081525060200191505060405180910390fd5b846000806101000a81548173ffffffffffffffffffffffffffffffffffffffff021916908373ffffffffffffffffffffffffffffffffffffffff1602179055508360018190555082600281905550816003819055508060049080519060200190620002e5929190620002f1565b505050505050620003a0565b828054600181600116156101000203166002900490600052602060002090601f016020900481019282601f106200033457805160ff191683800117855562000365565b8280016001018555821562000365579182015b828111156200036457825182559160200191906001019062000347565b5b50905062000374919062000378565b5090565b6200039d91905b80821115620003995760008160009055506001016200037f565b5090565b90565b6112f980620003b06000396000f3fe6080604052600436106100c25760003560e01c80638fa8b7901161007f578063c623674f11610059578063c623674f146102ae578063ce10cf801461033e578063ecfc7ecc146103a3578063f5b56c56146103c5576100c2565b80638fa8b790146101fd57806391f901571461022c578063b3cc167a14610283576100c2565b8063083c6323146100c75780633ccfd60b146100f25780633f9942ff1461012157806348cd4cb1146101505780634979440a1461017b5780638da5cb5b146101a6575b600080fd5b3480156100d357600080fd5b506100dc6103f0565b6040518082815260200191505060405180910390f35b3480156100fe57600080fd5b506101076103f6565b604051808215151515815260200191505060405180910390f35b34801561012d57600080fd5b506101366108ae565b604051808215151515815260200191505060405180910390f35b34801561015c57600080fd5b506101656108c1565b6040518082815260200191505060405180910390f35b34801561018757600080fd5b506101906108c7565b6040518082815260200191505060405180910390f35b3480156101b257600080fd5b506101bb610930565b604051808273ffffffffffffffffffffffffffffffffffffffff1673ffffffffffffffffffffffffffffffffffffffff16815260200191505060405180910390f35b34801561020957600080fd5b50610212610955565b604051808215151515815260200191505060405180910390f35b34801561023857600080fd5b50610241610b27565b604051808273ffffffffffffffffffffffffffffffffffffffff1673ffffffffffffffffffffffffffffffffffffffff16815260200191505060405180910390f35b34801561028f57600080fd5b50610298610b4d565b6040518082815260200191505060405180910390f35b3480156102ba57600080fd5b506102c3610b53565b6040518080602001828103825283818151815260200191508051906020019080838360005b838110156103035780820151818401526020810190506102e8565b50505050905090810190601f1680156103305780820380516001836020036101000a031916815260200191505b509250505060405180910390f35b34801561034a57600080fd5b5061038d6004803603602081101561036157600080fd5b81019080803573ffffffffffffffffffffffffffffffffffffffff169060200190929190505050610bf1565b6040518082815260200191505060405180910390f35b6103ab610c09565b604051808215151515815260200191505060405180910390f35b3480156103d157600080fd5b506103da611153565b6040518082815260200191505060405180910390f35b60035481565b60006003544311806104145750600560009054906101000a900460ff165b610469576040517f08c379a00000000000000000000000000000000000000000000000000000000081526004018080602001828103825260268152602001806111ed6026913960400191505060405180910390fd5b600080600560009054906101000a900460ff16156104cb57339150600860008373ffffffffffffffffffffffffffffffffffffffff1673ffffffffffffffffffffffffffffffffffffffff168152602001908152602001600020549050610719565b6000809054906101000a900473ffffffffffffffffffffffffffffffffffffffff1673ffffffffffffffffffffffffffffffffffffffff163373ffffffffffffffffffffffffffffffffffffffff16141561056a57600760009054906101000a900473ffffffffffffffffffffffffffffffffffffffff16915060065490506001600960006101000a81548160ff021916908315150217905550610718565b600760009054906101000a900473ffffffffffffffffffffffffffffffffffffffff1673ffffffffffffffffffffffffffffffffffffffff163373ffffffffffffffffffffffffffffffffffffffff1614156106d157600760009054906101000a900473ffffffffffffffffffffffffffffffffffffffff169150600960009054906101000a900460ff16156106635760086000600760009054906101000a900473ffffffffffffffffffffffffffffffffffffffff1673ffffffffffffffffffffffffffffffffffffffff1673ffffffffffffffffffffffffffffffffffffffff1681526020019081526020016000205490506106cc565b60065460086000600760009054906101000a900473ffffffffffffffffffffffffffffffffffffffff1673ffffffffffffffffffffffffffffffffffffffff1673ffffffffffffffffffffffffffffffffffffffff168152602001908152602001600020540390505b610717565b339150600860008373ffffffffffffffffffffffffffffffffffffffff1673ffffffffffffffffffffffffffffffffffffffff1681526020019081526020016000205490505b5b5b60008111610772576040517f08c379a000000000000000000000000000000000000000000000000000000000815260040180806020018281038252602d815260200180611269602d913960400191505060405180910390fd5b80600860008473ffffffffffffffffffffffffffffffffffffffff1673ffffffffffffffffffffffffffffffffffffffff168152602001908152602001600020600082825403925050819055503373ffffffffffffffffffffffffffffffffffffffff166108fc829081150290604051600060405180830381858888f19350505050158015610805573d6000803e3d6000fd5b507f9b1bfa7fa9ee420a16e124f794c35ac9f90472acc99140eb2f6447c714cad8eb338383604051808473ffffffffffffffffffffffffffffffffffffffff1673ffffffffffffffffffffffffffffffffffffffff1681526020018373ffffffffffffffffffffffffffffffffffffffff1673ffffffffffffffffffffffffffffffffffffffff168152602001828152602001935050505060405180910390a160019250505090565b600560009054906101000a900460ff1681565b60025481565b600060086000600760009054906101000a900473ffffffffffffffffffffffffffffffffffffffff1673ffffffffffffffffffffffffffffffffffffffff1673ffffffffffffffffffffffffffffffffffffffff16815260200190815260200160002054905090565b6000809054906101000a900473ffffffffffffffffffffffffffffffffffffffff1681565b60008060009054906101000a900473ffffffffffffffffffffffffffffffffffffffff1673ffffffffffffffffffffffffffffffffffffffff163373ffffffffffffffffffffffffffffffffffffffff16146109fc576040517f08c379a000000000000000000000000000000000000000000000000000000000815260040180806020018281038252602f815260200180611296602f913960400191505060405180910390fd5b6003544310610a56576040517f08c379a00000000000000000000000000000000000000000000000000000000081526004018080602001828103825260398152602001806111b46039913960400191505060405180910390fd5b600560009054906101000a900460ff1615610ad9576040517f08c379a00000000000000000000000000000000000000000000000000000000081526004018080602001828103825260138152602001807f61756374696f6e2069732063616e63656c65640000000000000000000000000081525060200191505060405180910390fd5b6001600560006101000a81548160ff0219169083151502179055507f437c69c84dab0c17ae0132a40f5406a040298bb09313766e500b4030d61feba760405160405180910390a16001905090565b600760009054906101000a900473ffffffffffffffffffffffffffffffffffffffff1681565b60015481565b60048054600181600116156101000203166002900480601f016020809104026020016040519081016040528092919081815260200182805460018160011615610100020316600290048015610be95780601f10610bbe57610100808354040283529160200191610be9565b820191906000526020600020905b815481529060010190602001808311610bcc57829003601f168201915b505050505081565b60086020528060005260406000206000915090505481565b60006002544311610c65576040517f08c379a000000000000000000000000000000000000000000000000000000000815260040180806020018281038252603e815260200180611176603e913960400191505060405180910390fd5b6003544310610cbf576040517f08c379a00000000000000000000000000000000000000000000000000000000081526004018080602001828103825260398152602001806111b46039913960400191505060405180910390fd5b600560009054906101000a900460ff1615610d42576040517f08c379a00000000000000000000000000000000000000000000000000000000081526004018080602001828103825260138152602001807f61756374696f6e2069732063616e63656c65640000000000000000000000000081525060200191505060405180910390fd5b6000809054906101000a900473ffffffffffffffffffffffffffffffffffffffff1673ffffffffffffffffffffffffffffffffffffffff163373ffffffffffffffffffffffffffffffffffffffff161415610de8576040517f08c379a00000000000000000000000000000000000000000000000000000000081526004018080602001828103825260308152602001806112396030913960400191505060405180910390fd5b60003411610e5e576040517f08c379a00000000000000000000000000000000000000000000000000000000081526004018080602001828103825260188152602001807f76616c75652073686f756c6420626520706f736974697665000000000000000081525060200191505060405180910390fd5b600034600860003373ffffffffffffffffffffffffffffffffffffffff1673ffffffffffffffffffffffffffffffffffffffff168152602001908152602001600020540190506006548111610efe576040517f08c379a00000000000000000000000000000000000000000000000000000000081526004018080602001828103825260268152602001806112136026913960400191505060405180910390fd5b600060086000600760009054906101000a900473ffffffffffffffffffffffffffffffffffffffff1673ffffffffffffffffffffffffffffffffffffffff1673ffffffffffffffffffffffffffffffffffffffff16815260200190815260200160002054905081600860003373ffffffffffffffffffffffffffffffffffffffff1673ffffffffffffffffffffffffffffffffffffffff16815260200190815260200160002081905550808211610fc857610fbd600154830182611159565b600681905550611077565b600760009054906101000a900473ffffffffffffffffffffffffffffffffffffffff1673ffffffffffffffffffffffffffffffffffffffff163373ffffffffffffffffffffffffffffffffffffffff16146110735733600760006101000a81548173ffffffffffffffffffffffffffffffffffffffff021916908373ffffffffffffffffffffffffffffffffffffffff16021790555061106c826001548301611159565b6006819055505b8190505b7fd9c002a96bcc0e55dd94d4add60b8695b6edda5ff90ed03fb9ce43ee632da1ec3383600760009054906101000a900473ffffffffffffffffffffffffffffffffffffffff1684600654604051808673ffffffffffffffffffffffffffffffffffffffff1673ffffffffffffffffffffffffffffffffffffffff1681526020018581526020018473ffffffffffffffffffffffffffffffffffffffff1673ffffffffffffffffffffffffffffffffffffffff1681526020018381526020018281526020019550505050505060405180910390a160019250505090565b60065481565b60008183101561116b5782905061116f565b8190505b9291505056fe63757272656e7420626c6f636b206e756d6265722073686f756c642062652067726561746572207468616e20737461727420626c6f636b206e756d62657263757272656e7420626c6f636b206e756d6265722073686f756c64206265206c657373207468616e20656e6420626c6f636b206e756d62657261756374696f6e2068617320656e646564206f7220686173206265656e2063616e63656c65644269642073686f756c642062652067726561746572207468616e2068696768657374206269646f6e6c79206f776e6572206973206e6f7420616c6c6f77656420746f20706572666f726d207468697320616374696f6e7769746864726177616c20616d6f756e742073686f756c642062652067726561746572207468616e207a65726f6f6e6c79206f776e657220697320617574686f72697a656420746f20706572666f726d207468697320616374696f6ea265627a7a723158200f49db89e43b295cf787c8d0834c519ec2b52f2ffdbc08c9427167732964197764736f6c634300050c0032737461727420626c6f636b206e756d6265722073686f756c642062652067726561746572207468616e207468652063757272656e7420626c6f636b206e756d6265727374617274696e6720626c6f636b2073686f756c642062652067726561746572207468616e2074686520656e64696e6720626c6f636b",
  "source": "pragma solidity ^0.5.0;\nimport \"@openzeppelin/contracts/math/Math.sol\";\n// import \"@openzeppelin/contracts/token/ERC721/ERC721Full.sol\";\n\ncontract AuctionFactory{\n    BlindAuction[] public auctions;\n    function createAuction (uint _startPrice, uint _startBlock, uint _endBlock, string memory _ipfsHash)\n      public\n      {\n        require(_startPrice > 0,\"Start Price should be greater than zero\");\n        // set the new instance\n        BlindAuction newAuction = new BlindAuction(msg.sender, _startPrice , _startBlock, _endBlock, _ipfsHash);\n        // push the auction address to auctions array\n        auctions.push(newAuction);\n    }\n    function returnAllAuctions() public view returns(BlindAuction[] memory){\n        return auctions;\n    }\n}\n\ncontract BlindAuction {\n    using Math for uint;\n    address public owner;\n    uint public bidIncrement;\n    uint public startBlock;\n    uint public endBlock;\n    string public ipfsHash;\n\n    // state\n    bool public canceled;\n    uint public highestBindingBid;\n    address public highestBidder;\n    mapping(address => uint256) public fundsByBidder;\n    bool ownerHasWithdrawn;\n    event BidPlaced(address bidder, uint bid, address highestBidder, uint highestBid, uint highestBindingBid);\n    event Withdraw(address withdrawer, address withdrawalAccount, uint amount);\n    event BidCanceled();\n\n    constructor(address _owner, uint _startPrice, uint _startBlock, uint _endBlock, string memory _ipfsHash)\n        public\n        {\n        require(_startBlock < _endBlock,\"starting block should be greater than the ending block\");\n        require(_startBlock < block.number,\"start block number should be greater than the current block number\");\n        require(_owner != address(0),\"owner address should be valid\");\n        owner = _owner;\n        bidIncrement = _startPrice;\n        startBlock = _startBlock;\n        endBlock = _endBlock;\n        ipfsHash = _ipfsHash;\n    }\n    modifier onlyOwner {\n        require(msg.sender == owner,\"only owner is authorized to perform this action\");\n        _;\n    }\n\n    modifier ownerNotAllowed {\n        require(msg.sender != owner,\"only owner is not allowed to perform this action\");\n        _;\n    }\n\n    modifier afterAuctionStart {\n        require(block.number > startBlock,\"current block number should be greater than start block number\");\n        _;\n    }\n\n    modifier beforeAuctionEnd {\n        require(block.number < endBlock,\"current block number should be less than end block number\");\n        _;\n    }\n\n    modifier auctionNotCanceled {\n        require(!canceled,\"auction is canceled\");\n        _;\n    }\n\n    modifier auctionEndedOrCanceled {\n        require(block.number > endBlock || canceled,\"auction has ended or has been canceled\");\n        _;\n    }\n    modifier auctionEnded {\n        require(block.number > endBlock,\"auction has ended\");\n        _;\n    }\n    modifier auctionCanceled{\n        require(canceled,\"has been canceled\");\n        _;\n    }\n    function getHighestBid()\n        public\n        view\n        returns (uint)\n    {\n        return fundsByBidder[highestBidder];\n    }\n\n    function placeBid()\n        public\n        payable\n        afterAuctionStart\n        beforeAuctionEnd\n        auctionNotCanceled\n        ownerNotAllowed\n        returns (bool success)\n    {\n        // reject payments of 0 ETH\n        require(msg.value > 0, \"value should be positive\");\n\n        // calculate the user's total bid based on the current amount they've sent to the contract\n        // plus whatever has been sent with this transaction\n        uint newBid = fundsByBidder[msg.sender] + msg.value;\n\n        // if the user isn't even willing to overbid the highest binding bid, there's nothing for us\n        // to do except revert the transaction.\n        require(newBid > highestBindingBid,\"Bid should be greater than highest bid\");\n\n        // grab the previous highest bid (before updating fundsByBidder, in case msg.sender is the\n        // highestBidder and is just increasing their maximum bid).\n        uint highestBid = fundsByBidder[highestBidder];\n\n        fundsByBidder[msg.sender] = newBid;\n\n        if (newBid <= highestBid) {\n            // if the user has overbid the highestBindingBid but not the highestBid, we simply\n            // increase the highestBindingBid and leave highestBidder alone.\n\n            // note that this case is impossible if msg.sender == highestBidder because you can never\n            // bid less ETH than you've already bid.\n\n            highestBindingBid = min(newBid + bidIncrement, highestBid);\n        } else {\n            // if msg.sender is already the highest bidder, they must simply be wanting to raise\n            // their maximum bid, in which case we shouldn't increase the highestBindingBid.\n\n            // if the user is NOT highestBidder, and has overbid highestBid completely, we set them\n            // as the new highestBidder and recalculate highestBindingBid.\n\n            if (msg.sender != highestBidder) {\n                highestBidder = msg.sender;\n                highestBindingBid = min(newBid, highestBid + bidIncrement);\n            }\n            highestBid = newBid;\n        }\n\n        emit BidPlaced(msg.sender, newBid, highestBidder, highestBid, highestBindingBid);\n        return true;\n    }\n    function min(uint a, uint b)\n        private\n        pure\n        returns (uint)\n    {\n        if (a < b) return a;\n        return b;\n    }\n\n    function cancelAuction()\n        public\n        onlyOwner\n        beforeAuctionEnd\n        auctionNotCanceled\n        returns (bool success)\n    {\n        canceled = true;\n        emit BidCanceled();\n        return true;\n    }\n\n    function withdraw()\n        public\n        auctionEndedOrCanceled\n        returns (bool success)\n    {\n        address withdrawalAccount;\n        uint withdrawalAmount;\n\n        if (canceled) {\n            // if the auction was canceled, everyone should simply be allowed to withdraw their funds\n            withdrawalAccount = msg.sender;\n            withdrawalAmount = fundsByBidder[withdrawalAccount];\n\n        } else {\n            // the auction finished without being canceled\n\n            if (msg.sender == owner) {\n                // the auction's owner should be allowed to withdraw the highestBindingBid\n                withdrawalAccount = highestBidder;\n                withdrawalAmount = highestBindingBid;\n                ownerHasWithdrawn = true;\n\n            } else if (msg.sender == highestBidder) {\n                // the highest bidder should only be allowed to withdraw the difference between their\n                // highest bid and the highestBindingBid\n                withdrawalAccount = highestBidder;\n                if (ownerHasWithdrawn) {\n                    withdrawalAmount = fundsByBidder[highestBidder];\n                } else {\n                    withdrawalAmount = fundsByBidder[highestBidder] - highestBindingBid;\n                }\n\n            } else {\n                // anyone who participated but did not win the auction should be allowed to withdraw\n                // the full amount of their funds\n                withdrawalAccount = msg.sender;\n                withdrawalAmount = fundsByBidder[withdrawalAccount];\n            }\n        }\n\n        require(withdrawalAmount > 0,\"withdrawal amount should be greater than zero\");\n\n        fundsByBidder[withdrawalAccount] -= withdrawalAmount;\n\n        // transfer the funds\n        msg.sender.transfer(withdrawalAmount);\n\n        emit Withdraw(msg.sender, withdrawalAccount, withdrawalAmount);\n\n        return true;\n    }\n\n}",
  "sourcePath": "/home/mandy/consensys2019/consensys2019_auction/contracts/BlindAunction.sol",
  "compiler": {
    "name": "solc",
    "version": "0.5.12+commit.7709ece9.Emscripten.clang"
  },
  "schemaVersion": "3.0.20",
  "updatedAt": "2020-02-01T06:22:25.704Z",
  "devdoc": {
    "methods": {}
  },
  "userdoc": {
    "methods": {}
  }
}